:10D10000380C0020A12F02000D2F0200F18E02002A
:10D11000FD8E0200098F0200218F0200158F020090
:10D1200000000000000000000000000011360200B6
:10D130001D2F020000000000BD350200212F02005B
:10D14000252F0200292F020075240200E538020075
:10D150002D2F0200312F0200352F0200392F02003F
:10D160003D2F0200412F0200452F0200492F0200EF
:10D170004D2F0200512F0200552F0200592F02009F
:10D180005D2F0200612F0200652F0200692F02004F
:10D190006D2F0200712F0200752F0200792F0200FF
:10D1A0007D2F020005390200812F0200F5380200B0
:10D1B000852F0200892F02008D2F0200912F02007F
:0CD1C000952F0200992F02009D2F020005
:10D1FC0000015F5F00000000FE0B000079370200A9
:10D20C00000400000000000000000000000000000E
:10D21C000000000000000000407100200000000031
:10D22C0001015F5F01000000FF030000D93702001D
:10D23C0000010000000000000000000000000000E1
:10D24C0000000000000000004075002000000000FD
:10D25C0001015F5F050100001F010000C5F1000026
:10D26C0000070000000000000100000001000000A9
:10D27C000000000000000000102D00200000000045
:10D28C00800000AEF819030020000000030F00001E
:10D29C000100000009F100000100000001015F5FC6
:10D2AC002D0100000F030000F50F0100001000001D
:10D2BC00000000000000000005000000000000005D
:10D2CC0003000000A049002000000000101A030019
:10D2DC00800000AE000F0000010000000000000004
:10D2EC0010000000241A030070000000000500006C
:10D2FC00010000000000000020000000301A0300B4
:10D30C00710000000005000001000000000000009A
:10D31C00400000003C1A03007200000000050000F1
:10D32C00010000000000000080000000501A030003
:10D33C007300000000050000010000000000000068
:10D34C000001000001380200153902002D01000017
:10D35C0003000000000000804D3802002D3902004F
:10D36C002D0100001B000000000000409938020055
:10D37C00213902002D0100001900000000000020DE
:10D38C0001015F5F2C0100000F030000D923020094
:10D39C000010000000000000000000000100000070
:10D3AC000000000000000000680C002000000000DD
:10D3BC00601A0300700000AE0005000001000000C0
:10D3CC00000000001000000001015F5F2E01000052
:10D3DC000F020000F10B0100001000000000000023
:10D3EC00000000000100000000000000010000002F
:10D3FC00681C002000000000741A0300000500AE39
:10D40C0000050000010000000000000010000000FA
:10D41C0029240200852402002E01000002000000D5
:04D42C00000000807C
:10D44000F8B50D4617460446C0E9265700F1A00777
:10D4500048220021ED0F38461E461CF00DF800232F
:10D460009FED157BC4F8D8500225069A204606CABF
:10D47000C4F8C06084ED347BC4E9373384F8C85005
:10D4800023F0B6FE2146384602F05CF9054638B175
:10D4900003280BD019280CBF012503252846F8BD09
:10D4A0002046052123F012FF2846F8BD0425284612
:10D4B000F8BD00BFAFF300805D81FF7F000000007A
:10D4C0009FED357B4FF4C2039FED356B70B504467D
:10D4D00086B04FF0FF308DED006B8DED027B049335
:10D4E00012F0F6FD002839D12F4D4FF0FF3012F029
:10D4F00021FE2E4AD2F8003FD907FBD44FF0E0615D
:10D5000001202B4B19600199596002999960039988
:10D51000D960049919612549C2F8000FD1F8003F7C
:10D520009B07FBD5224B1A68002A4FF00202A2BFCC
:10D530005B68002623601D4BB8BF4FF0FF36C3F871
:10D54000002F12F003FE0023C5F8083212F0CCFDC4
:10D55000012002F079FE304606B070BD0026124D63
:10D560004FF4807231462846C5F808621BF084FFEC
:10D570004FF480723146A8181BF07EFF04F018F9B2
:10D5800018B9012002F03CFEAFE7C5F8086212F0BE
:10D59000ABFDAAE7AFF30080000000000000000030
:10D5A0000000000747365A4F1034002000300F406B
:10D5B00000000F400000000070B50546164C4FF407
:10D5C0008072002120462E691BF056FF4FF48072B6
:10D5D0000021A0181BF050FF0DA1D1E90001EB6A5A
:10D5E000326923610023C4E909336361E362636341
:10D5F0004FF0C8532263AA6BC4E90201A2616A6CAE
:10D6000023602262B5F84820C2F30B02E26170BDCC
:10D610002E00080808000000103400200000000060
:10D6200070B50546184C4FF48072002120462E69D3
:10D630001BF022FF4FF480720021A0181BF01CFF8A
:10D64000002233694FF0C8512363AB6B6262A36160
:10D65000B5F84830E262C3F30B0343F49003E3618F
:10D66000626300230022686C503520622160C4E9A7
:10D67000042303A1D1E90001A562C4E9020170BD40
:10D680002F000808080000001034002000000000EF
:10D6900070B5826FC36E04469A42474B474A0D46A7
:10D6A000DA62037E84B020D0042B01D00F295ED82B
:10D6B0000026636B404AC2F89030A36BC2F89430E6
:10D6C000E36BC2F89830236CC2F89C30002E37D040
:10D6D000237E022B02D0002004B070BDEFF305833F
:10D6E000002B51D0606904B070BD042B01D00F290C
:10D6F00050D800269FED2E7B94F88120E16AC2F17C
:10D700000E030DF101008DED007B8DED027B8DF898
:10D7100000301BF073FE0121009B274A8DF80F108B
:10D72000C2F89030019BC2F89430029BC2F8983046
:10D73000039BC2F89C30D069C307FCD4002EC7D12C
:10D74000D4E9090133462A4608F0FCF9A26F1A4BC6
:10D75000521BA267D3F890206263D3F89420A2638F
:10D76000D3F89820E263D3F89C302364B3E70B46E8
:10D77000D0E9091208F0C2F9A36F01261B1AA367AA
:10D78000636E1B1A636694E74FF0FF310C4812F08A
:10D790002DFCA7E70B46D0E9091208F0AFF9A36FFB
:10D7A00001261B1AA367636E1B1A6366A2E700BFFC
:10D7B000000000000000000000000C402A002A01C8
:10D7C000406300200000000030B5C36905460C46E8
:10D7D00085B0002B3ED1284B284ADA629FED247B8E
:10D7E00095F820202969C2F10E030DF101008DED9D
:10D7F000007B8DED027B8DF800301BF0FFFD0021DA
:10D80000009A1D4B8DF80F10C3F89020019AC3F8B1
:10D810009420029AC3F89820039AC3F89C20DA69EE
:10D82000D207FCD42168EA69C3F880106168C3F8A4
:10D830008410A168C3F88810E168C3F88C10196FD0
:10D840002160596F6160996FA160DB6FE3602AB955
:10D8500005B030BD084B0A4ADA62BFE70123D5E9BB
:10D86000020105B0BDE8304008F06CB9AFF30080AC
:10D87000000000000000000000000C4028002A0109
:10D880002A002A01000000002DE9F0470468DDE9C4
:10D890000889D4F8E050002D78D11E4694F8F03075
:10D8A000002B73D18E464FF0010A04F1040CD645CB
:10D8B00007460FCA8CE80F006561C4E91A68C4F80E
:10D8C000DC6084F87CE084F88090256784F87F50E1
:10D8D000C4F8D88084F8F0A051D02022002104F1AF
:10D8E00082001BF0C9FD1022002104F1A2001BF0F0
:10D8F000C3FD1022002104F1C4001BF0BDFD102265
:10D90000002104F1B2001BF0B7FD0023227923634C
:10D91000282AA36503D1204605F0BCFC0546102E3D
:10D9200005D9D4F8E4304BB12846BDE8F087B8F10A
:10D93000100FF9D9D4F8E430002BF5D1394620681E
:10D9400004F0DAF940B33C68302294F87C30012BC3
:10D9500019BF15A1D1E900010021114804F008FB0D
:10D960003A4604200F4904F0FDF990B904F042FA58
:10D9700078B9656904F0E8F92846BDE8F087B9F19F
:10D98000000FAAD1102384F88030A6E74FF0FF35AE
:10D99000CAE74FF0FF35EDE76FF00105C4E700BFC0
:10D9A00002281400B5310100022824000000000004
:10D9B0002DE9F84F0B680D461A780646022A5DD00D
:10D9C000082A5BD0222A02D0282A40F0968095F8B7
:10D9D00020903468A9F10702062A00F28E80D4F85C
:10D9E000E020002A40F08980D5E9067E17EB0E0F73
:10D9F00000F0838094F8F080B8F1000F7DD101220F
:10DA000004F1040C84F87C200FCBC4F81480A565C5
:10DA10008CE80F006B68D5E902BAD5E9042CC4E99B
:10DA2000083BC4E90AA2C4F830C0C4F85CE0C4F8FA
:10DA30006CE095F821303146002B08BF1023C4F864
:10DA4000D8E0206884F88190C4F8E480C4F8D470E9
:10DA5000A766C4F8DC7084F8803004F04DF9002823
:10DA60004ED0EB69102B01D91B070ED12379282B3F
:10DA700025D03046BDE8F84F06F0FABA29463046C0
:10DA8000BDE8F84F012206F0F9B93568302295F863
:10DA90007C30012B19BF1FA1D1E9000100211A48D8
:10DAA00004F066FA32460420184904F05BF90028B5
:10DAB000DCD104F09FF90028D8D16B69D6E7204665
:10DAC00005F0E8FB04460028D3D03568D5F8E4001B
:10DAD00020B904F039F92046BDE8F88F04F078FA4F
:10DAE000324604200A4904F03DF90028F1D104F03F
:10DAF00081F90028EDD16B69EBE74FF0FF34EAE7DD
:10DB00006FF00104E7E700BF02281400B5310100FF
:10DB100095310100022824000000000000000000F0
:10DB20002DE9F84F0B680D461A780646022A59D09F
:10DB3000082A57D0222A02D0282A40F0928095F84D
:10DB400020903468A9F10702062A00F28A80D4F8EE
:10DB5000E020002A40F08580D5E9067E17EB0E0F05
:10DB60007FD094F8F080B8F1000F7AD1022204F14E
:10DB7000040C84F87C200FCBC4F81480A5658CE8D5
:10DB80000F006B68D5E902BAD5E9042CC4E9083B5B
:10DB9000C4E90AA2C4F830C0C4F85CE0C4F86CE080
:10DBA00095F821303146C4F8D8E0206884F88030F8
:10DBB00084F88190C4F8E480C4F8D470A766C4F8EF
:10DBC000DC7004F099F800284ED0EB69102B01D9D5
:10DBD0001B070ED12379282B25D03046BDE8F84FFE
:10DBE00006F046BA29463046BDE8F84F022206F054
:10DBF00045B93568302295F87C30012B19BF1FA13B
:10DC0000D1E9000100211A4804F0B2F9324604209B
:10DC1000184904F0A7F80028DCD104F0EBF800283C
:10DC2000D8D16B69D6E7204605F034FB04460028BE
:10DC3000D3D03568D5F8E40020B904F085F8204643
:10DC4000BDE8F88F04F0C4F9324604200A4904F014
:10DC500089F80028F1D104F0CDF80028EDD16B69E6
:10DC6000EBE74FF0FF34EAE76FF00104E7E700BFAE
:10DC700002281400B531010095310100022824006A
:10DC8000000000000000000030B50468054660692F
:10DC900083B0002854D1C1B194F87CC06267BCF154
:10DCA000010FA267A166C4F8DC10E26684F8803038
:10DCB000206784F87F00C4F8D82044D0102917D9F1
:10DCC000D4F8E430D3B103B030BD002A4DD094F87D
:10DCD0007C1062670129A267A066C4F8DC00E266D6
:10DCE00084F88030206784F87F00C4F8D82030D0D2
:10DCF000102AE8D9D4F8E430002BE4D12946206872
:10DD000003F0FAFF70B32C68302294F87C30012BBA
:10DD100019BF19A1D1E900010021154804F028F923
:10DD20002A460420134904F01DF8C0B904F062F833
:10DD3000A8B96069019004F007F8019803B030BDFC
:10DD4000606903B030BD002BB8D1102384F8803057
:10DD5000B4E7002BCCD1102384F88030C8E74FF013
:10DD6000FF30E7E76FF00100ADE74FF0FF30AAE7C3
:10DD700002281400B5310100022824000000000030
:10DD80002DE9F04104684A4A94F84810494B11F0D3
:10DD9000100F94F8491005460CBF4FF400604FF483
:10DDA0008060012908BF134622798AB0222A09D04F
:10DDB000282A50D0A26D62B14FF0FF3630460AB02B
:10DDC000BDE8F081A36DA768002BF5D12646F26867
:10DDD00001E026461746012919BF33A1D1E9000108
:10DDE0000021354804F0C4F82A460420334903F0E2
:10DDF000B9FF0028E0D103F0FDFF0028DCD17669EF
:10DE0000002EDBD1206812F095F9002845D00123BF
:10DE1000D5F8008084F8613098F80430222B36D091
:10DE2000282B14BF3146D8F808103846D8F85820A7
:10DE300004F0B2F82A460420214903F093FF48BBBE
:10DE400003F0D8FF30BBD8F8146012F07FF93046E9
:10DE50000AB0BDE8F08101900093202204F158033C
:10DE600002A9201D03F046FA06460028A6D1A26D9D
:10DE700052B92E68337996F84910222B12D0282BEC
:10DE800002AFA8D1B268A6E784F8610096E7D8F897
:10DE90000C10CAE74FF0FF36D7E703F055FF6FF0DD
:10DEA00001068BE702AF92E701281208000000008C
:10DEB0000002C0030001C00301281200414A010012
:10DEC000F5490100000000002DE9F047046806460E
:10DED00094F84830676C13F0EF0336D0626D002A77
:10DEE0004AD04FF000094FF0FF385D1EBB6818BFE5
:10DEF00001250F2B30D93A68E2641A071CBF0025B0
:10DF000023F00F0320462A464946236504F036FDD8
:10DF1000206812F00FF900284CD032463249207E9A
:10DF200003F020FF38B903F065FF20B9D4F814805E
:10DF30004046BDE8F08712F009F9304606F0D6FDFC
:10DF400003F002FF4046BDE8F0870125BB684FF0B3
:10DF5000FF380F2BA946CED804F1300A1022002139
:10DF600050461BF089FA5046BA6839681BF046FAE9
:10DF7000BB68C4F84CA0C5E794F849301022012BC7
:10DF800019BF17A1D1E900010021184803F0F0FFE3
:10DF900032460420164903F0E5FE80B903F02AFF5B
:10DFA0004FF0010994F8483090B9D4F8148003F088
:10DFB000EF039AE703F0C8FE6FF00108B8E794F8A2
:10DFC00048304FF001094FF0FF3803F0EF038CE7C2
:10DFD0004FF0FF3803F0EF0387E700BFAFF3008097
:10DFE0000228120800000000854B010002281200E0
:10DFF000614A010000000000F8B50468E66D751C78
:10E000003AD00F4694F849100546022936D0F968EF
:10E0100001390F2935D894F8606096BB84F84830F0
:10E0200004F1040C0FCA676466618CE80F001023CA
:10E0300004F12000194632466665A6650BF06AFCBD
:10E040002946206803F058FE002839D02846FFF7FB
:10E0500097FEBB680646102B01D91B0714D136B9B1
:10E060002846BDE8F840FFF72FBF4FF0FF3628469F
:10E0700006F03CFD03F068FE3046F8BDB9680029A3
:10E08000C5D14FF0FF36F7E72C68102294F84930DD
:10E09000012B19BF0EA1D1E9000100210A4803F0AC
:10E0A00067FF2A460420094903F05CFE0028DCD102
:10E0B00003F0A0FE0028D8D16669002ED0D0D6E7A4
:10E0C0006FF00106D8E700BF02281200614A010084
:10E0D00002281208000000002DE9F8430468DDF86A
:10E0E0002080D4F8EC50002D72D11E4694F8FC30FC
:10E0F000002B6DD18E464FF0100904F1040C074639
:10E100000FCA8CE80F0084F898E065612022294648
:10E11000C4F89080C4F88860C4F88C80C4F8946017
:10E12000E567C4F8805084F8999004F19B001BF0D7
:10E13000A3F94A46294604F1BB001BF09DF94A4663
:10E14000294604F1DC001BF097F94A46294604F100
:10E15000CB001BF091F9012384F8FC30237925636F
:10E16000282BA56703D1204608F078FC0546102E21
:10E1700005D9D4F8F4304BB12846BDE8F883B8F19E
:10E18000100FF9D9D4F8F430002BF5D139462068B6
:10E1900003F0B2FD20B33C68302294F89830012B94
:10E1A00007BF12A1D1E9000112A1D1E9000103F0DA
:10E1B000DFFE3A4604200C4903F0D4FD58B903F0C1
:10E1C00019FE40B9656903F0BFFD2846BDE8F88334
:10E1D0004FF0FF35D0E703F0B7FD4FF0FF35F2E722
:10E1E0006FF00105C8E700BF796901000228140833
:10E1F00000000000022824080000000000000000C9
:10E200002DE9F843D1E9067E1EEB070F046800F004
:10E210009780D4F8EC30002B40F0928094F8FC808A
:10E22000B8F1000F40F08C8001230D4684F898303F
:10E230000B6804F1040CC4F81480A16706460FCBE8
:10E240008CE80F006B68D5E90290D5E9042CC4E98D
:10E250000839C4E90A02C4F830C0C4F87CE0C4F844
:10E260008CE095F82130C4F88070002B08BF102393
:10E27000C4F8887095F820203146C4F890E084F8FE
:10E280009A20C4F89470C4F8F48084F89930206817
:10E2900003F032FD002856D0EB69102B0ED82379FD
:10E2A00004F13405282B28D01022002128461BF029
:10E2B000E3F83046BDE8F84308F064BD1B07EED034
:10E2C0003568302295F89830012B07BF24A1D1E999
:10E2D000000125A1D1E9000103F04AFE32460420E5
:10E2E0001D4903F03FFD88BB03F084FD70BB6B69E3
:10E2F000237904F13405282BD6D1204608F0AEFB53
:10E3000004461022002128461BF0B6F8002CD0D07D
:10E310003568D5F8F40020B903F016FD2046BDE8B5
:10E32000F88303F055FE324604200C4903F01AFD31
:10E330000028F1D103F05EFD0028EDD16B69EBE719
:10E340004FF0FF34EAE76FF00104E7E703F0FCFC6D
:10E35000A5E700BFAFF30080796901005D690100A6
:10E360000228140800000000022824080000000011
:10E370002DE9F843D1E9067E1EEB070F046800F093
:10E380009480D4F8EC30002B40F08F8094F8FC801F
:10E39000B8F1000F40F0898002230D46064684F84C
:10E3A00098300B6804F1040CC4F81480A1670FCBFB
:10E3B0008CE80F006B68D5E90290D5E9042CC4E91C
:10E3C0000839C4E90A02C4F830C0C4F87CE0C4F8D3
:10E3D0008CE095F82130C4F8807084F89930C4F846
:10E3E000887095F820303146C4F890E084F89A306F
:10E3F000C4F89470C4F8F480206803F07DFC002811
:10E4000056D0EB69102B0ED8237904F13405282B54
:10E4100028D01022002128461BF02EF83046BDE8F7
:10E42000F84308F0AFBC1B07EED03568302295F8F2
:10E430009830012B07BF24A1D1E9000124A1D1E923
:10E44000000103F095FD324604201D4903F08AFCCB
:10E4500088BB03F0CFFC70BB6B69237904F13405F2
:10E46000282BD6D1204608F0F9FA044610220021C4
:10E4700028461BF001F8002CD0D03568D5F8F40000
:10E4800020B903F061FC2046BDE8F88303F0A0FD4D
:10E49000324604200B4903F065FC0028F1D103F05B
:10E4A000A9FC0028EDD16B69EBE74FF0FF34EAE7F8
:10E4B0006FF00104E7E703F047FCA5E7AFF3008046
:10E4C000796901005D69010002281408000000005C
:10E4D000022824080000000030B50368044658698B
:10E4E00083B000283FD181BB002A47D0C3E9220274
:10E4F000C3F89400C3F89020102A32D9D3F8F4203E
:10E500007ABB2146186803F0F7FB002833D0256852
:10E51000302295F89830012B07BF1CA1D1E90001EA
:10E520001CA1D1E9000103F023FD22460420164975
:10E5300003F018FCD0B903F05DFCB8B9686901902C
:10E5400003F002FC019803B030BD1029C3F8941009
:10E55000C3E92212C3F89020CED9D3F8F420002AC0
:10E56000CFD003B030BD586903B030BD03F0ECFB31
:10E570004FF0FF30E3E76FF00100F2E74FF0FF30BC
:10E58000EFE700BFAFF300807969010002281408AB
:10E590000000000002282408000000000000000025
:10E5A0002DE9F047046894B0A36A013300F040837A
:10E5B0000022237F0746012B228201D0022B44D167
:10E5C000A3695E68002E40D0A34D31682B68994244
:10E5D0004BD1B269AB699A4247D1696870680BF058
:10E5E0007BF9002840D0B269296930690BF074F9D1
:10E5F000002839D0E023012019466074E38120739C
:10E6000004F1400304F13C0220F0EAFC002800F091
:10E6100097822268137803F0DF01022902D0282BA9
:10E6200040F024826068257F0178012D01F0DF0130
:10E6300048D002293AD06FF02205284614B0BDE830
:10E64000F087607C002840F07283207B431E072BFC
:10E6500000F26F83DFE813F0DB00C600BC00EF00C0
:10E66000C600BC00E600E00031687C4D2B688B42A0
:10E6700040F0F980B269AB699A4240F0F480696871
:10E6800070680BF029F9002800F0EC80B269296964
:10E6900030690BF021F9002800F0E4804FF480711C
:10E6A00001200223E18160742373A9E7A16809783E
:10E6B00001F0DF01042907D06FF02305284614B0CC
:10E6C000BDE8F0870429B6D11B07E38954BF9168E0
:10E6D00051680733B1EBD30F4FEAD30640F0B7824E
:10E6E000A37F8268002B55D149000131914240F04F
:10E6F0008480022D00F08480012D66D100214068C5
:10E700001AF0BAFE0021902204F144001AF0B4FE7F
:10E710003946206A03F0F0FA002800F0BF82206A30
:10E7200011F008FD002800F0B7823E6833681A78BF
:10E73000282A00F09E8135464FF00008D3F8049057
:10E74000EA892B7B1F325209082B02F1010207BF15
:10E750003DA1D1E900013EA1D1E90001920003F001
:10E7600007FC3A4604203E4903F0FCFA002840F03A
:10E77000E28103F03FFB002840F0DD81AD6A002D0F
:10E7800000F0928003F0A4F811F0E0FC284614B0E9
:10E79000BDE8F087237B082B2DD0B2EB410F2CD1A5
:10E7A000022DA9D1A36899688E4200F03281B1EBA5
:10E7B000460F4FEA460203D00132914240F0718287
:10E7C000002158681AF058FE9CE7A3689A68F7E79A
:10E7D0004FF4C0710328E18109D040F201230220E7
:10E7E00023820DE74FF480710228E181F5D10123E6
:10E7F0001846637404E79142D2D06FF025051CE7F8
:10E8000043681B78042BCDD06FF0280515E7E02175
:10E810000123E1816374F3E6FF2303201946E381BA
:10E820006074EDE64FF4007340F2012202201946B5
:10E83000E3812282E4E640F2092301201946E381C4
:10E840006074DDE6AFF30080014841040000000081
:10E850000148210400000000E01F0200C420020063
:10E860008D7301003168BA4D2B688B4240F02981CD
:10E87000B269AB699A4240F02481696870680BF014
:10E880002BF8002800F01C81B269296930690BF06F
:10E8900023F8002800F014814FF4C07101200323F5
:10E8A000E18160742373ABE60123D7F800A086F8FA
:10E8B000D430BAF80E501F356D091D44AD00B8F1C3
:10E8C000000F00F0A8809AF80C30082B0BD199F8B3
:10E8D000043023F0070389F8043099F8233043F01B
:10E8E000400389F8233029464846DAF82C2003F003
:10E8F00053FB3A460420974903F034FA002840F0CD
:10E900001A8103F077FA002840F01581DAF82850D0
:10E91000002D7FF437AFD7F80080B8F80E2098F8B4
:10E920000C301F325209082B02F1010200F0C380A3
:10E9300000218948D20003F01BFB3A460420874996
:10E9400003F010FA002840F0F68003F053FA002894
:10E9500040F0F180D8F82850002D7FF413AF98F8DC
:10E960001C80B8F1020F00F0298102F0B1FF0028ED
:10E9700040F0C480337F022B00F0C0803D6800214E
:10E980002A6C774803F0F4FA3A460420754903F0FC
:10E99000E9F9002840F0CF8003F02CFA002840F07D
:10E9A000CA80AD6A002D7FF4EDAE3E68D6E90F0156
:10E9B000B26B03F0F1FA3A4604206B4903F0D2F946
:10E9C000002840F0898103F015FA0546002840F040
:10E9D0008381B66A02F07CFF002840F03E81002E61
:10E9E00040F0A381237B082B3FF427AE3C682046F0
:10E9F00003F0C0FB3A4604205C4903F0B3F9002859
:10EA000040F09E8003F0F6F9002840F09980A56A56
:10EA100013E63246D4E641460AF144082A46404607
:10EA20001AF02AFDDAF800309AF810205868BAF87F
:10EA30000E109AF81E30CDF8008011F0D5FB9AF830
:10EA40000C30082B0BD19AF8483023F007038AF8D2
:10EA500048309AF8673043F040038AF86730294617
:10EA60004046DAF82C2003F097FA42E76FF02105D0
:10EA7000E3E511F06BFB4FF480453346DFF8F8C057
:10EA800053F82C0B4822CDE900C502A902F032FC54
:10EA90000546306A11F04EFB8046002800F0D28017
:10EAA000002D7FF46FAEF36A002B40F0D3803D68F9
:10EAB0000DF1080944E6920023A1D1E900013AE7EB
:10EAC00031682B4D2B688B4259D1B269AB699A42A0
:10EAD00055D1696870680AF0FFFE00284ED0B2690F
:10EAE000296930690AF0F8FE002847D040F2092170
:10EAF00001200423E1816074237381E53D68EA8984
:10EB00002B7F1F32012B4FEA521200F094809200AB
:10EB100040F20140002103F02BFA3A460420154947
:10EB200003F020F938B903F065F920B9AD6A002D7A
:10EB30003FF424AF26E64FF0FF3523E611F006FB45
:10EB40004FF0FF3579E500BF0140410000000000B3
:10EB50009C1E0200E972010001402100AD7301001A
:10EB600001440F00ED7301000D74010001730100F9
:10EB7000E01C0200CD7301000000020931686F4DF6
:10EB80002B688B4271D1B269AB699A426DD16968C9
:10EB900070680AF0A1FE002866D0B2692969306960
:10EBA0000AF09AFE00285FD04FF48071052240F2EF
:10EBB00001230220E1812273238221E529463D6859
:10EBC0009022EB8905F1440A1F335B09504603F19B
:10EBD00001091AF051FC2B7BE989082B08BF4FF083
:10EBE00001086B6808BF4FEA890958682B7CCDF88B
:10EBF00004A095F81EC018BF4FEAC9094246CDF8D7
:10EC000000C011F00FFB494650462A6B03F0C4F9CF
:10EC10003A4604204A4903F0A5F800288BD103F0B6
:10EC2000E9F8002887D1AD6A002D7FF4ABAD9CE6F2
:10EC30006FF01F0501E52B7B0132082B3FF467AF16
:10EC4000D20065E703F080F86FF001059AE56FF0F8
:10EC50002405F2E486F8D4505DE611F077FA002E30
:10EC60003FF4C0AE3546E8E43168364D2B68994232
:10EC70001BD1B269AB699A4217D1696870680AF012
:10EC80002BFE88B1B269296930690AF025FE58B1B6
:10EC90004FF4C07106228AE703F056F86FF00105C1
:10ECA000CBE46FF02605C8E43168274D2B68994204
:10ECB0001BD1B269AB699A4217D1696870680AF0D2
:10ECC0000BFE88B1B269296930690AF005FE58B1B6
:10ECD0004FF4007107226AE702F0FAFD00287FF482
:10ECE0002DAF4FF0FF354FE53168184D2B68994235
:10ECF0007FF4A7ACB269AB699A427FF4A2AC6968B1
:10ED000070680AF0E9FD00283FF49BACB2692969FC
:10ED100030690AF0E1FD00283FF493ACFF210320A5
:10ED20000823E181607423736AE435462CE5E189A8
:10ED300066E400236FF0200563747EE4FC1B020090
:10ED4000E9720100B81A0200141902001818020032
:10ED50002DE9F04F05688DB06B6A013300F0D0816A
:10ED60002B7D04465A1E012A76D9032B00F04881D8
:10ED70006A68137819076DD55368202B40F08B8192
:10ED8000FF21042005F1400305F13C0220F028F9A1
:10ED9000002800F083812146286A02F0ADFF064674
:10EDA000002800F07E8127683B7D5A1E012A40F230
:10EDB0009380B8467868032B72D0C1460026D0F8FD
:10EDC00004A0C6A1D1E90001242203F0D1F8224613
:10EDD0000420B94902F0C6FF002840F0F98003F092
:10EDE00009F8002840F0F480D8F824503DBB0125F4
:10EDF00099F8142089F80A50023AAA42D4F80090EF
:10EE000040F200813B7D023B012B40F2B2800021A9
:10EE1000AA48D9F8402003F0ABF822460420A849BC
:10EE200002F0A0FF002840F0D38002F0E3FF0028AA
:10EE300040F0CE80D9F82450002D00F0B18020465B
:10EE400009F0C0F902F080FF28460DB0BDE8F08F50
:10EE500004281DD1936890E72A68117801F0DF003B
:10EE600002281BD0282913D15268202A40F0408163
:10EE70006968012B08780A4600F0DF00E8D00B78BB
:10EE80000A4603F0DF010229E4D0282B3FF474AFD7
:10EE90006FF0220528460DB0BDE8F08F9268E4E7D8
:10EEA0000378282B89D14FF400630193854B2422EA
:10EEB000009303A908F12C0302F01CFA0546002870
:10EEC000BDD1D8F82C30002B40F01581C1460DF192
:10EED0000C0AD4F8008074E738680378282B00F017
:10EEE000BD803D464FF00009D0F804806EA1D1E905
:10EEF0000001242203F03CF822460420724902F06B
:10EF000031FF002864D102F075FF002860D16D6ADE
:10EF1000002D94D14FF0010A25682B68D3F804B076
:10EF200087F809A0B9F1000F55D040462421AA6AFC
:10EF300003F032F822460420644902F013FF00284F
:10EF400042D102F057FF00283ED16D6A002D7FF4B8
:10EF500076AFD4F8008098F81430022BD8F804006B
:10EF60007FF429AF0378282B7FF427AF4FF4806319
:10EF70009BE74FA1D1E90001402202F0F9FF2246B0
:10EF80000420534902F0EEFE10BB02F033FFF8B943
:10EF9000D9F82450002D7FF452AFD4F8009036E712
:10EFA0002568D5E90F012A6B02F0F6FF22460420FE
:10EFB000484902F0D7FE58B902F01CFF40B96D6A0B
:10EFC000002D3FF467AF3AE7013001D102F0BCFEFB
:10EFD0004FF0FF3533E705F15008494624224046FB
:10EFE0001AF04AFA584652465346FF21CDF800809F
:10EFF00011F0FAF840462421AA6A02F0CDFF99E701
:10F0000069683CE7002E3FD1314609F150062422C1
:10F0100030461AF031FAD9F804302A465868FF21F0
:10F020002B46CDE9005611F0FDF830462421D9F8E1
:10F030002C2002F0B1FF22460420274902F092FE64
:10F040000028C5D102F0D6FE0028C1D1D9F824503D
:10F05000002D7FF4F4AED4F80090D3E64FF4804254
:10F06000184B03A9CDE90032242207F1280302F04E
:10F0700041F9054600287FF4E2AEBB6A93BBB14676
:10F0800025680DF10C0831E750462421D9F82C20D1
:10F0900002F082FFCFE76FF00605FBE64FF0FF3589
:10F0A000F8E66FF01F05F5E6014850380000000053
:10F0B0000228D001000000001D81010001440F0062
:10F0C0005D81010000080006FD800100E58001006F
:10F0D0003D81010095810100AD8101000140503862
:10F0E00000000000D4F80080787298F8143034E7FB
:10F0F0006FF00505CEE6D4F8009088F80A0081E6A6
:10F100006FF02005C6E600BF40F2E932F0B50368B3
:10F110000446934285B026D040F2EA3293421DD194
:10F120000369042B48D1036A042B45D18568244820
:10F130000021056002AA60681AF008FA0428064651
:10F140003AD1029803A900F08FF9054640B901466B
:10F150003346606803AA1AF005FA01E06FF08505EE
:10F16000284605B0F0BD0669076A731E3F2B23D8F9
:10F1700017B38268124B002140681A601AF02EFA09
:10F180000021054660681AF039FA024603A800908B
:10F190003B462846314600F03DF905460028DFD1C0
:10F1A00029466068039A1AF031FA606829461AF015
:10F1B0001DFA284605B0F0BD6FF08605D0E700BF08
:10F1C000205D002000F018B9202230B58DB0054632
:10F1D00004A901A8019213F08FFF60B90446019BB6
:10F1E0002846074902AA04ADCDE9025300F094FA7B
:10F1F00020460DB030BD052420460DB030BD00BF07
:10F2000008DBFEFF30B50D4B83B00193054600F0DF
:10F210005BFA6A4601A900F051F9044608B9009B5F
:10F2200013B1204603B030BD284601220023044913
:10F2300000F04CFA204603B030BD00BF02DBFEFFF9
:10F2400001DBFEFF38B50025044613F023FF2B46F3
:10F2500002460349204600F039FA284638BD00BF6F
:10F2600006DBFEFF30B583B0054601A800F0D2FCF6
:10F27000044628B9019A28460349D31700F026FA14
:10F28000204603B030BD00BF07DBFEFF202230B5B3
:10F290008DB0054604A901A8019213F05DFF60B985
:10F2A0000446019B2846074902AA04ADCDE9025352
:10F2B00000F01CFA20460DB030BD032420460DB0EE
:10F2C00030BD00BF05DBFEFF30B583B005466846A4
:10F2D00000F07EF9044620B96A462846024900F04B
:10F2E00005FA204603B030BDFFDAFEFF002230B53C
:10F2F0008BB0054602A92020CDE9002213F010FFB3
:10F3000060B90446202302A9284600916A460549AF
:10F31000019300F0EBF920460BB030BD03242046EA
:10F320000BB030BD04DBFEFFF0B5BDB004460D46AA
:10F330002E4802A9164621F001FEA0B9BDF80830FA
:10F3400003F44F42B2F5824F11D0B3F5885F0AD172
:10F35000BDF80A30B3F5C07F1AD0B3F5007F3CD0BA
:10F36000B3F5807F37D0052420463DB0F0BDDBB239
:10F37000122BF8D1BDF80A30B3F5C07F32D0B3F507
:10F38000007F2CD0B3F5807FEDD16FF0060300E055
:10F39000062300220095114602A8FEF751F8B0B9E5
:10F3A0002246134902A800F0A1F9124D05F11C07ED
:10F3B00055F8043F02A8984704460028D4D1AF422C
:10F3C000F6D1314602A800F04DF90028CCD0012832
:10F3D000C9D10224C8E70523DBE70723D9E76FF08B
:10F3E0002303D6E76FF02203D3E700BF5D81FF7FE1
:10F3F00000DBFEFFA414020008B500F0E1F80428C9
:10F4000096BF034B6FF0830053F8200008BD00BF88
:10F410009414020000B587B0029221F01002202A55
:10F4200000900191039306D0402904D06FF086002C
:10F4300007B05DF804FB002BF8D0684604AA02A9C7
:10F44000FFF772FF28B9059B089A136007B05DF8B3
:10F4500004FB042802D96FF08300E9E7014B53F85D
:10F460002000E5E79414020000236FF0004210B57D
:10F4700086B0CDE90232009320F01003202B0C4619
:10F48000019005D0402803D06FF0860006B010BD73
:10F49000684604AA02A9FFF747FF18B9059B236035
:10F4A00006B010BD042803D96FF0830006B010BD6C
:10F4B000014B53F82000E9E7941402002DE9F04FC6
:10F4C00087B0019000285AD09046002A57D00023D8
:10F4D00042F2160A1D46384F04AE07F104091360C4
:10F4E00002913B88534503D0032007B0BDE8F08F5D
:10F4F000B7F802B0BB44CB451CD9304C05E0BDF891
:10F50000123004331C44A34514D90422214630464A
:10F5100019F074FFBDF81030C3F38512AA42EED182
:10F5200003F03F033F2BBDF812B016D0062D0DD0CF
:10F530000135D6E7062D09D0CB4505F10105D0D818
:10F5400042F2160339F8041C9942CDD1D8F80030A4
:10F55000CBB9002007B0BDE8F08FD8F800300133F8
:10F56000012BC8F8003014D00434CDF814B0049442
:10F57000092196E80C00019821F070FED6E70420DE
:10F5800007B0BDE8F08F0198042121F0CFFE0020E4
:10F59000E0E7029B5BB11B6801981A460393DB17F7
:10F5A00021F03EFE0421019821F090FEDCE70421C9
:10F5B000019821F08BFED7E7245D0020285D002014
:10F5C0004FF400720120014900F02CBB245D0020A3
:10F5D00070B51D4D04462A6886B03AB1002C31D072
:10F5E00000201A4BC4E9003206B070BD184E0092DC
:10F5F00033685BB9174801A921F0A0FC00BB334672
:10F6000041221549134821F0B9FCC8B9684613498D
:10F6100021F0DAFCA0B9684632680F4921F0F8FC05
:10F6200070B90F4E684620223146074B21F012FD7B
:10F6300030B901232A6806F8013C1A442A60CDE754
:10F640000320D1E70520CFE7285F00202C5F0020B2
:10F65000505F00205D81FF7F545F002009000002A1
:10F660002D5F002070B5044682B00D46052121F0C3
:10F670005DFE214604F1A00000F0E6F858B1032831
:10F6800019D0192803D10123184602B070BD0323F5
:10F69000184602B070BD6E462046314621F026FF66
:10F6A00001280346EFD050B996E8030085E803002F
:10F6B000184602B070BD0423184602B070BD022384
:10F6C000184602B070BD00BF704700BF70B5164647
:10F6D00004461D460A46CB1721F0A2FD32462B46B2
:10F6E0002046BDE8704021F09BBD00BF134670B5B9
:10F6F000D3E90065044682B00A46CB1721F090FD9D
:10F7000002212046CDE9006502AB13E90C0002B0EE
:10F71000BDE8704021F0A2BD134670B5D3E9006585
:10F72000044682B00A46CB1721F07AFD0321204619
:10F73000CDE9006502AB13E90C0002B0BDE87040F2
:10F7400021F08CBD2DE9F0410446AAB0006A0E46B6
:10F7500000F0FCF800285BD0A36B9A0752D5042177
:10F76000304621F0B3FD18226B4604AD009401929F
:10F7700093E806002846276A21F03AFD052128462D
:10F7800021F0A4FD01220023284621F049FD3A463C
:10F79000FB17284621F044FD0521284621F0C6FD2F
:10F7A000284602A921F0A2FE074630BB029B039A1D
:10F7B000A361E26123B304F1180393E8030085E831
:10F7C0000300022195E80C00304621F047FDA36BB1
:10F7D000DB0733D4D4E90F840521304621F076FDD0
:10F7E000DCB93046052121F0A1FD0221304621F08F
:10F7F0006DFD38462AB0BDE8F0810023C4E9063328
:10F800000227F6E712220023304621F055FDA6E735
:10F81000012738462AB0BDE8F081B8F1000FE0D0EA
:10F8200030460422002321F0FBFCCDE904840221B0
:10F8300095E80C00304621F011FDD2E71C27384630
:10F840002AB0BDE8F08100BF40232DE9F0430C460B
:10F850002025ADB00DEB03061CAA14AFCDE90E7543
:10F860000C9201213246054620460D9321F0CAFD37
:10F87000A37B1BB101232374192630E0237C012BC9
:10F88000FAD0002B42D12268D5F820C05AB30DF12E
:10F890002008CDF8108002AF0EA903C987E8030045
:10F8A00096E803008DE8030005F11802604606CAD9
:10F8B00000F052F8064690B9AB6B0DF12809DB0752
:10F8C00029D599E8030012AB83E8030002210CCB91
:10F8D000204621F0C3FC0421204621F027FD3046BC
:10F8E0002DB0BDE8F0830BAB029305F1300393E834
:10F8F00003008DE8030028350A92604695E80C0065
:10F9000000F010F90DF128090646DAE7182630460E
:10F910002DB0BDE8F083CDF8189004AA0CA903C956
:10F9200082E8030005F1280398E803000CCB87E880
:10F93000030005F1300C9CE803008DE80300286A01
:10F9400000F090F80028BCD00646C8E7C31D0CBFE5
:10F950006FF00F00002070472DE9F041BCB06F46FA
:10F9600087E8060030210AAA0292039102AA06CA79
:10F970003B4C804616A81E4621F03AFC042116A8EE
:10F9800021F0A4FC204621F0F9FF0025CDE9084034
:10F9900008AC032194E80C0016A821F05FFC97E85E
:10F9A000030084E80300022194E80C0016A821F06B
:10F9B00055FCCDE90855022194E80C0016A821F069
:10F9C0004DFC002E3CD1CDE90866022194E80C00E4
:10F9D00016A821F043FC0125042116A821F0A6FC5D
:10F9E00016A804A921F082FD002835D118F1070FCF
:10F9F0000CBF6FF00F01002106A800F0BDF8E0B9C0
:10FA0000DDE904235B1B34BF0121002100291CBF59
:10FA100000230022CDE9082306A894E8060000F0A0
:10FA2000C9F842AB93E8060006A800F0C3F844AA60
:10FA3000469B06A806CA00F0CBF83CB0BDE8F081B2
:10FA400042AB93E8030084E803000B2194E80C0028
:10FA500016A821F003FCBFE715203CB0BDE8F081FB
:10FA6000C414020082B010B586B008A9073081E83E
:10FA70000C0005D0012006B0BDE8104002B0704770
:10FA800005A8DDE90E41DDE90C23CDE90110009464
:10FA900023490A9821F00CFB10F1850F32DA10F19E
:10FAA000970F29DB9730112826D801A353F820F0AF
:10FAB0001BFB0000F9FA000017FB0000F9FA000038
:10FAC000F9FA0000F9FA0000F9FA0000F9FA00006A
:10FAD000F9FA0000F9FA000013FB0000F9FA00003F
:10FAE000F9FA0000F9FA0000F9FA0000F9FA00004A
:10FAF000F9FA000075FA0000172006B0BDE81040C2
:10FB000002B070470028F7D1059B109AC2E9004364
:10FB1000B1E71020AFE70D20ADE71220ABE700BF43
:10FB20000906000682B000B587B008A9073018BFE3
:10FB3000012081E80C0004D007B05DF804EB02B0AE
:10FB4000704700230A9801A9CDE90133CDE90333B9
:10FB5000059321F0F3F928B1002007B05DF804EB1C
:10FB600002B07047BDF80620D308520718BF013312
:10FB70000C9A5B001360EFE74FF6FF720C4B10B569
:10FB800011F1100F14BF11461946002303600446FB
:10FB900021F01AFA606038B110F1860F05D010F12B
:10FBA0008A0F14BF0420052010BD032010BD00BF24
:10FBB0000900000210B582B002AB03E906004368F9
:10FBC00023B919B1044621F023FA606002B010BDD8
:10FBD00070B582B002AC04E90600426842B112F18D
:10FBE000860F13D08A3214BF0420052002B070BDE6
:10FBF0001D46019A04330E46044621F02BFA60603C
:10FC000002462E600028EAD102B070BD032002B087
:10FC100070BD00BF0346024A002012681A60704798
:10FC2000205D002008B521F033F9003818BF01200D
:10FC300008BD00BF10F4004370B419D001224FF486
:10FC4000807140F202254FF400740020284BC3F865
:10FC50001052C3F81C22C3F8C420C3F81842C3F8DA
:10FC600000025965C3F800229965002070BC7047F6
:10FC7000C2051ED51E48D0F80822002A27DB40F214
:10FC8000DA551C4C26682260A6F5B7117339A942D3
:10FC90001DD8A2F5B7117339A94218D8921B953215
:10FCA000B2F5957F13D84FF4003242658265236028
:10FCB000DBE78303D9D50E4BD3F8C0200A2A11D035
:10FCC0000A214FF40032C3F8C0109A65CDE7002036
:10FCD00001214FF48072064BC3F80002C3F80012F2
:10FCE0009A65C2E7044A0120C3F89C20BEE700BF22
:10FCF00000100040985F002080841E802DE9F843AA
:10FD0000344C206830B10123836000F087FF00226B
:10FD100023689A600022304B304D3148314CD3F883
:10FD200008802A601F69D3F81490E468C5682E49DA
:10FD3000A4B2ADB20C430D43EFF3148616F00200EB
:10FD40003ED082F31488BFF36F8F4FF0706310467C
:10FD5000DB6C9847022383F31488BFF36F8F86F31D
:10FD60001488BFF36F8F1E4A1B4BD560A2F500327B
:10FD7000D4601E4AC3F808801F61C3F81490D2F8FB
:10FD8000843043F00503C2F8843001F0C1F918490A
:10FD9000184A0B6843F002030B605378FF2B14D012
:10FDA00053780133DBB2537001F0BEF94FF40042D7
:10FDB00001200E4B10495A659A650870BDE8F8831A
:10FDC0004FF07063DB6C9847CDE701F0ADF913F0AD
:10FDD00061FBEBE7B05F002000E002E0B45F0020D1
:10FDE00000ED02E000ED00E00000FA050010004028
:10FDF000346000203C600020082D0020F8B5834BC3
:10FE0000DD6C2F045D65DD6500F1908015F00A065C
:10FE100028D0D3F884207E4C22F00102C3F884203D
:10FE20005B6C180400F1D6807A4F784AD2F884309F
:10FE300043F00503C2F8843001F06AF93B6843F0EF
:10FE400002033B606378FF2B00F0BF8063780133CF
:10FE5000DBB2637001F068F94FF400426B4B5A65F6
:10FE60009A659E6529074DD46B4C236813B12846CB
:10FE7000984710B9EB062ED4F8BD002601204FF0AC
:10FE80008042624B26606549C3F8B000D36A0C68B3
:10FE900043F00403D3622CB3A368DA061FD5D4E978
:10FEA0000332002110209847C8B101F031F9584BB6
:10FEB0005A78002A00F084805A78013AD2B25A70F7
:10FEC0005B7823B9534A136823F00203136001F0EF
:10FED0002BF9EB06D0D5BDE8F84013F0DBBA246867
:10FEE000002CD9D101F014F94D4A136843F01003E6
:10FEF000136001F019F94B4B18680028D5D000F0B9
:10FF000083FED2E7414C01F003F9D4F8A43023F08A
:10FF10000043C4F8A430D4F8A43043F00043C4F83C
:10FF2000A43001F001F90823A3659DE74FF40031E7
:10FF30003A4A596514685CB3A3681E0725D5D4E90D
:10FF40000332002108209847F8B1314C01F0E0F865
:10FF5000637805F00A065BB36378013BDBB263703C
:10FF6000637823B92B4F3B6823F002033B6001F019
:10FF7000DBF8002E3FF476AF244A264FD2F88430C7
:10FF800023F00103C2F884304FE72468002CD3D15A
:10FF900001F0BEF8224A136843F00803136001F031
:10FFA000C3F8204B18680028CFD000F02DFECCE716
:10FFB00001F0BAF813F06EFA002E3FF453AFDBE70E
:10FFC00001F0B2F813F066FA54E701F0ADF813F05F
:10FFD00061FA41E701F09CF863784BB16378013B2B
:10FFE000DBB26370637843B101F09EF8094F1CE700
:10FFF00001F09AF813F04EFA16E7064F3B6823F02B
:020000021000EC
:1000000002033B6001F090F80FE700BF00100040D2
:100010003C6000203460002044600020B85F002075
:10002000B45F0020B05F002070B584B001F070F8BC
:100030002D4B1D7825B101F077F8002004B070BD7C
:1000400001241C7001F070F801A801F0A1F8274A02
:1000500001AB132126488DF80C5001F07DF80321E7
:100060004FF4826019F036F94FF0804048F20A06EA
:10007000426C204B2049214D42F4801242649E651F
:100080008C650C662C66D3F8842042F00502C3F818
:10009000842001F03DF81A491A4A0B6843F0020324
:1000A0000B605378FF2B1AD053780133DBB25370B7
:1000B00001F03AF84FF4004210240E4B12495A65F1
:1000C0009A65D3F8A420132042F00042C3F8A4207C
:1000D000C1F8004801F03EF8002004B070BD01F006
:1000E00023F813F0D7F9E5E7686D0020FDFD000067
:1000F0009C5F0020001000400020004000200240D3
:10010000346000203C6000200050004010F47F4329
:1001100008D1124BC0B21A181B5CD07FDBB2C0B240
:1001200018447047B3F5807F0BD0B3F5007F11D131
:100130000B4BC0B21A181B5CD07BDBB2C0B21844A8
:100140007047084BC0B21A181B5CD079DBB2C0B242
:10015000184470476FF00100704700BFF05F002047
:10016000C05F0020E05F002010F47F4307D1104BF8
:10017000C1EB41110B44C0B2185CC0B27047B3F57B
:10018000807F0AD0B3F5007F0FD10A4BC1EB01117C
:100190000B44C0B2185CC0B27047074BC1EBC10141
:1001A0000B44C0B2185CC0B270476FF001007047DA
:1001B000F05F0020C05F0020E05F0020034610B425
:1001C000034A044C002023605DF8044B1160704723
:1001D0003860002030600020844660B15AB1084683
:1001E00008B56146CCE90202CCF81030034800F0B3
:1001F00045FD002008BD6FF002007047B85F002089
:10020000042838B518D8044600F082FF01230C49B1
:10021000A3400D680B4A2B430B60135DFF2B08D0E6
:100220000025135D0133DBB2135500F07DFF284636
:1002300038BD4FF0FF35F8E76FF00105F7E700BF75
:10024000346000203C600020042810B51AD8044611
:1002500000F05EFF0D4B1A5D8AB11A5D013AD2B211
:100260001A551B5D33B901220949A2400B6823EAE4
:1002700002030B60002400F057FF204610BD4FF032
:10028000FF34F8E76FF00104F7E700BF3C6000209F
:100290003460002038B5044600F03AFF14F47F4380
:1002A000054610D12B4BE4B2185D19191A5DC97FB0
:1002B000FF285FFA80FCD2B2C9B224D1284600F0F0
:1002C00033FF002038BDB3F5807F29D0B3F5007F20
:1002D000F4D1214BE4B2185D1A19195DD27BFF28C5
:1002E0005FFA80FCC9B2D2B2E8D00CF1010C5FFA1F
:1002F0008CFC891803F804C0E0D10123A34098B214
:1003000018F0FAFFDAE70CF1010C5FFA8CFCCA4234
:1003100003F804C0D2D10123104AA3405361CDE7B2
:100320000F4BE4B2185D19191A5DC979FF285FFAFD
:1003300080FCD2B2C9B2C1D00CF1010C5FFA8CFCC6
:10034000CA4203F804C0B9D10123044AA34093610F
:10035000B4E700BFF05F0020C05F00200000024053
:10036000E05F002070B505460C4600F0D1FE15F4A4
:100370007F43064612D12A4BC4EB4414EDB21C4411
:10038000615D5A195B5DD27FFF29DBB2D2B2C8B280
:1003900023D1304600F0C8FE002070BDB3F5807F49
:1003A00025D0B3F5007FF4D11E4BC4EB0414EDB29D
:1003B0001C44625D5819595DC37BFF2AC9B2DBB288
:1003C000D0B2E6D00130C0B2C9186055E1D10123E6
:1003D000AB4098B218F090FFDBE70130C0B2D342D7
:1003E0006055D6D10123104AAB405361D1E70F4B82
:1003F000C4EBC404EDB21C44615D5A195B5DD27953
:10040000FF29DBB2D2B2C8B2C3D00130C0B2D342EE
:100410006055BED10123044AAB409361B9E700BFE8
:10042000F05F0020C05F002000000240E05F00207D
:1004300070B5044600F06CFE14F47F43054617D1F6
:10044000254EE1B2725C02F0FF03002A3ED0013B70
:10045000DBB220467354FFF759FE18B901231F4A37
:100460008B4013620024284600F05EFE204670BDDB
:10047000B3F5807F17D0B3F5007F2AD11849E6B2D3
:100480008A5D02F0FF030AB3013BDBB220468B55C5
:10049000FFF73CFE01460028E4D10120B04080B2C5
:1004A00018F058FFDEE70F4EE1B2725C02F0FF0376
:1004B00062B1013BDBB220467354FFF727FE0028F0
:1004C000D0D10123054A8B405362CBE74FF0FF3474
:1004D000C9E76FF00104C6E7F05F002000000240AA
:1004E000C05F0020E05F0020F8B505460C4600F034
:1004F0000FFE15F47F4306461AD12A4AC4EB441472
:10050000E9B22244505C00F0FF03002844D0013BD4
:10051000DBB228465354FFF7F9FD18B90123224AEC
:100520008B4013620024304600F0FEFD2046F8BDEB
:10053000B3F5807F1AD0B3F5007F30D11B4BC4EBED
:100540000414EFB22344D95D01F0FF0221B3013A54
:10055000D2B22846DA55FFF7D9FD01460028E1D18D
:100560000120B84080B218F0F5FEDBE7104BC4EB79
:10057000C404EFB22344D95D01F0FF0261B1013A36
:10058000D2B22846DA55FFF7C1FD0028CAD10123AF
:10059000054ABB405362C5E74FF0FF34C3E76FF035
:1005A0000104C0E7F05F002000000240C05F0020AF
:1005B000E05F0020F8B500F0ABFD394B394A1B680D
:1005C0001168044611B1126812681343D9070AD49E
:1005D000354E3378012B0DD06FF00405204600F026
:1005E000A3FD2846F8BD6FF00305204600F09CFDF2
:1005F0002846F8BD04232D4A33701568002D33D0EA
:10060000AB689A072DD5D5E903320021022098471F
:1006100038B3274A274B12781D78AA4298BF4FF06B
:10062000FF3C15D80020244F00E00A46930003F158
:10063000804303F544531B68511C9B0205D5FB6C9A
:10064000D34013F0010F18BF0120AA42EDD1F0B141
:1006500001234FF0FF352046337000F065FD28463A
:10066000F8BD2D68002DCBD1144D286830B1022380
:10067000836000F0D3FA00222B689A600C4A0D4B7D
:1006800012781D78954205D34FF0000CCAE7BCF1F3
:10069000000FDDD14FF080434AF2A5529A60D7E7B0
:1006A0003460002030600020082D0020B85F00205A
:1006B0001D2202001C22020000300240B05F002018
:1006C00072B64FF08042D36A43F00103D362FEE773
:1006D0004FF08043186B20F40040562832D856283B
:1006E0002DD8DFE800F02E2E2E2C2E2C2E2C2C2E8A
:1006F0002C2C2C2C2C2C2C2C2C2C2C2C2E2C2C2C38
:100700002C2C2C2C2C2C2C2C2C2C2C2C2E2C2C2C27
:100710002C2C2C2C2C2C2C2C2C2C2C2C2E2C2C2C17
:100720002C2C2C2C2C2C2C2C2C2C2C2C2E2C2C2C07
:100730002C2C2C2C2C2C2C2C2C2C2C2C2E004FF03C
:10074000FF307047B0F5003FFBD0B0F5403F18BF19
:100750004FF0FF30704700BF4FF080430122DA6056
:10076000704700BF70B5012002241E4B1E4A1F496E
:10077000C3F8C040C3F89000116000F0C9FC1C49E8
:100780001C4A0B6823430B605378FF2B25D053780A
:100790000133DBB2537000F0C7FC00F0B9FC114B21
:1007A0005A6C12F4004214D101214FF4807440F2CB
:1007B00002264FF40075C3F81062C3F81C12C3F888
:1007C000C410C3F81852C3F800225C65C3F80012C5
:1007D0009C65BDE8704000F0A7BC00F0A5FC12F0DD
:1007E00059FEDAE7001000404460002035FC0000AC
:1007F000346000203C600020344BD3F84031DA07ED
:1008000060D4334B98420BD0324B984249D0A3F17D
:100810008B73A3F5A633984233D06FF00100704775
:100820004FF09C4292F85303B2F8523392F852239D
:100830002949C0F34000C3F3431302F01F025B01D8
:1008400010B443EA4023254C1343204A6382D2F874
:10085000443103F040430B43C2F84431D2F84031F5
:1008600043F00503C2F84031936C1B03FCD5D2F86A
:100870004431002043F000435DF8044BC2F844319A
:1008800070474FF09C4292F85103B2F8503392F8FF
:1008900050231349C0F34000C3F3431302F01F0277
:1008A000CDE74FF09C4292F85503B2F8543392F8DA
:1008B00054234FF0FA61C0F34000C3F3431302F036
:1008C0001F02BCE74FF0FF30704700BF0010004030
:1008D000002062050000DC05E9DE80080011004010
:1008E0009A999909064BD3F8442122F00042C3F8A3
:1008F0004421D3F8402122F00102C3F8402170477F
:1009000000100040B0F5803F09D200F47F43B3F5FA
:10091000807FC0B20FD0B3F5007F07D00BB10020AD
:1009200070471E288CBF0020012070470E288CBF06
:1009300000200120704706288CBF0020012070474E
:1009400010B500F0E5FB0022034B1C681A6000F0B4
:10095000EBFB204610BD00BFB45F0020064A08B57F
:10096000106010B1054B1B680BB9002008BD00F0EA
:100970004BF9002008BD00BFB05F0020B45F00202D
:100980002DE9F047064686B0EFF39085012383F307
:100990009088EFF3108783F31088624C624A2168D5
:1009A000136813B113681B681943604B5B68C3F38A
:1009B00008334BB187F310884FF0000A85F3908815
:1009C000504606B0BDE8F08701F00400890720D545
:1009D0000028EFD187F31088EFF3908C012787F37D
:1009E0009088534E51482368116811B11168096805
:1009F0000B4313F0040104D11B0754BFB764B16467
:100A000030BF4368C3F30833002BECD08CF39088DD
:100A1000D2E74849D1F8C03003F00303012B62D07C
:100A20006FF4FA78DFF82CC14349DCF80431F31A8B
:100A300043448B42CCD8414A41491369684623F06C
:100A4000010313611822DCF84480DCF8449118F0AB
:100A5000D5FC042140F2444018F03CFC202000F07A
:100A60006BFB384B963E5E62374E3468002C42D0AA
:100A7000A368D9073CD5D4E9033200210120984767
:100A8000002835D001224FF0FF3A304B1A70012276
:100A90002C4B2F49DA6020205A650B6800F04CFB84
:100AA000232140F244402B4C18F014FCD4F8403180
:100AB000012BFBD169461822214818F09FFCC4F88D
:100AC0004491C4F8448018F073FC3468DCB1A36826
:100AD0005A0715D5D4E9033200210420984778B18C
:100AE00087F310886AE78B6C9B037FF563AF97E70A
:100AF0002468002CBCD1FFF701F94FF0000AC6E7CB
:100B00002468002CE3D1144C20680028E8D004238A
:100B1000836000F083F8002223689A6087F31088CE
:100B20004CE700BF346000203060002000ED00E0A2
:100B300000000240001000400AFEBFFF00E002E09B
:100B40004C21024000200040B85F0020082D00200A
:100B50000030004000200240B05F002070B4EFF38E
:100B6000908C012686F390880D4C0E490E4D0F484F
:100B700023680A6812B10A681268134313F004026A
:100B800004D11B0754BFAE64AA6430BF4368C3F3EB
:100B90000833002BECD08CF3908870BC704700BFFA
:100BA00034600020306000200000024000ED00E0D2
:100BB00040F661010C4A08B50C48D2F818310340E0
:100BC0000B43C2F81831D2F81C3103400B43C2F872
:100BD0001C31FFF729FAFFF7C5FD4FF0804253693A
:100BE00043F00103536108BD0010004000F0FFFF17
:100BF00008B511F015FD11F079FF4FF000414FF0ED
:100C0000FF3018F093FCF8E70346012202491A73FB
:100C1000086820F015BD00BFDC1402000346002266
:100C200010B50469806824F001041A736408640034
:100C3000214622462346B7EE000AF7EE000AB7EE39
:100C4000001AF7EE001AB7EE002AF7EE002AB7EE08
:100C5000003AF7EE003AB7EE004AF7EE004AB7EE78
:100C6000005AF7EE005AB7EE006AF7EE006AB7EEE8
:100C7000007AF7EE007A20F041FE10BD38B5054647
:100C80000C4600F045FA00226B68C4E900232BB142
:100C90001C606C60BDE8384000F046BA2C606C60A7
:100CA000BDE8384000F040BA38B50C46054600F0C3
:100CB0002FFAD4E9002332B153603BB11A60BDE88A
:100CC000384000F031BA6B60002BF7D12A60BDE8E4
:100CD000384000F029BA00BF38B503680C465B7E87
:100CE0009BB10B4D20462C680FF0A6F82B68196AB3
:100CF000E06129B1084608F03DFF00222B681A6226
:100D00001846BDE83840FFF77FBF02F07DF8E8E7FE
:100D10004860002038B503680C465B7E9BB10B4DE4
:100D200020462C680FF088F82B68196AE06129B119
:100D3000084608F01FFF00222B681A621846BDE81B
:100D40003840FFF761BF03F059FBE8E74860002037
:100D500038B503680C465B7E9BB10B4D20462C6872
:100D60000FF06AF82B68196AE06129B1084608F0AB
:100D700001FF00222B681A621846BDE83840FFF7D1
:100D800043BF04F0A5FCE8E74860002038B50368DD
:100D90000C465B7E9BB10B4D20462C680FF04CF847
:100DA0002B68196AE06129B1084608F0E3FE0022C9
:100DB0002B681A621846BDE83840FFF725BF04F0DB
:100DC00087FCE8E74860002038B503680C465B7E86
:100DD0009BB10B4D20462C680FF02EF82B68196A3A
:100DE000E06129B1084608F0C5FE00222B681A62AE
:100DF0001846BDE83840FFF707BF04F07BFEE8E780
:100E00004860002038B503680C465B7E9BB10B4DF3
:100E100020462C680FF010F82B68196AE06129B1A0
:100E2000084608F0A7FE00222B681A621846BDE8A3
:100E30003840FFF7E9BE05F0CFFBE8E74860002047
:100E400038B503680C465B7E9BB10B4D20462C6881
:100E50000EF0F2FF2B68196AE06129B1084608F02C
:100E600089FE00222B681A621846BDE83840FFF759
:100E7000CBBE06F0E3F8E8E74860002070B5114DFE
:100E8000044608462E680EF0BFFF2B68196AF06111
:100E900029B1084608F06EFE00222B681A6222680B
:100EA00092F8D52022B1BDE870401846FFF7ACBEDD
:100EB000204606F00FFC2B68BDE870401846FFF78F
:100EC000A3BE00BF4860002070B504460846A3F1E9
:100ED0000201B1FA81F1104D49092E680EF034FF7C
:100EE0002B68196AF06129B1084608F043FE002218
:100EF0002B681A62226892F8CD2022B1BDE87040BA
:100F00001846FFF781BE204606F0F6FF2B68BDE8C5
:100F100070401846FFF778BE4860002070B5044660
:100F20000846A3F10301B1FA81F1104D49092E6879
:100F30000EF038FF2B68196AF06129B1084608F0F5
:100F400019FE00222B681A622268127A22B1BDE8CB
:100F500070401846FFF758BE204607F0CFFB2B68BD
:100F6000BDE870401846FFF74FBE00BF4860002044
:100F700070B5114D044608462E680EF0D9FE2B6858
:100F8000196AF06129B1084608F0F4FD00222B68C7
:100F90001A62226892F8F82022B1BDE87040184623
:100FA000FFF732BE204608F0BBF82B68BDE8704062
:100FB0001846FFF729BE00BF4860002010B54FF467
:100FC000A05201230024084888B00590074908482A
:100FD0000291079001A902A8CDE9033206940EF010
:100FE000D5FD08B010BD00BF090600061271000152
:100FF0005D81FF7F00234FF4C072F0B587B0CDE96B
:101000000032CDE90233CDE90433FFF7D1FD08F01A
:1010100047FD002861D100F0F3F800286AD10EF0F6
:1010200065FE002863D16946364809F06BFE00284A
:1010300056D14FF0004018F0C1FA4FF0005018F0B0
:10104000BDFA4FF0804018F0C1FA2F4C2F4E4FF0F0
:1010500000414FF0FF3018F069FAC3060FD5214662
:10106000102018F06BFA236853B345F6F022934230
:1010700008D06FF08001606818F080FAE7E718F098
:1010800085FAE4E7D4E90153002B37DA2369042B0E
:1010900034D132460021284618F058FA0346172268
:1010A000042B4FF0AC0130680CBF00276FF08007B5
:1010B00020F01CFB08B33946284618F05FFAC6E753
:1010C000A068C00F09F0ECFD2046656808F008FE36
:1010D0000146284618F052FAB9E718F057FA9AE78D
:1010E000FFF76CFF0028A4D018F050FAA1E718F021
:1010F0004DFA98E718F04AFA91E730606FF08007F0
:10110000D9E700BF5D81FF7F4C6000204860002070
:10111000EFF39080EFF31083012282F3908872B690
:1011200043EA0020704700BFC30700D462B6000A3C
:1011300080F39088704700BF20F0B4BA20F068BAFE
:10114000034B53F8203013B1D3E901201047704707
:101150007C60002020F044BA10B5044648B153B179
:1011600018681B7AC4E90120084A216042F821402E
:101170003BB9204610BD0548626040F82140A3609D
:101180002160084620F02CFA204610BD7C6000202B
:1011900030B100214FF0FF32012301604260037241
:1011A000704700BF00B5EFF39083EFF3108C4FF062
:1011B000010E8EF3908872B61CF0010FC0E9011287
:1011C0004CEA032300D162B61B0A83F390885DF8D2
:1011D00004FB00BF20F034BA704700BF4FF0FF316E
:1011E00008B503480EF002FFB0FA80F0400908BDD0
:1011F0004861002001480EF003BF00BF4861002095
:1012000038B5174D2B7813B10024204638BD00F0B7
:1012100055FA00F073FB0146D8B900F06DFDD8B166
:1012200019F068FD044600F08FFD002CEDD118F098
:10123000F5F970B90B4C94F8503013B101232B70B1
:10124000E2E7012120460EF0CBFE012384F8503066
:10125000F4E76FF08304D8E76FF0F904D5E700BF37
:10126000696D0020486100202DE9F043204F0446BD
:10127000894687B04FF0FF313846164698460EF043
:10128000B5FE48BB012387F8513046B3054605A992
:101290002046C8F800501AF00BFC044658B110F173
:1012A000FA0F87F8515017D038460EF0A9FE2046A5
:1012B00007B0BDE8F08301460F9B0E9A0598CDF864
:1012C00008800196CDF800901AF014FF10F1FA0F83
:1012D000044687F85150E7D16FF0F904E7E7384644
:1012E0006FF0890487F851600EF08AFEDFE700BFD7
:1012F000486100202DE9F04F002407464FF4C075E7
:10130000474E8DB0884630464FF0FF3191469A46A1
:10131000CDE90844CDE90A44D7F808B0079506940A
:1013200004940EF063FE68B90123054606A95846E9
:1013300086F851301BF0B8FE10F1FA0F044686F81B
:10134000515005D16FF0F90420460DB0BDE8F08F83
:1013500030460EF055FE002CF6D106A80EF036FFF2
:10136000054606A80EF030FF3B78040A082B20D073
:101370002CBB179B4A460193169B41460093584647
:1013800004ABFFF771FF04460028DDD1002DDBD050
:1013900005F11F03049A5B090133B2EB830FD3D02D
:1013A000B2EBC30FD0D07B689A4218BF6FF08304B2
:1013B000CAE7002CDDD01B4B169A9A422AD1012C89
:1013C0002BD14FF0FF3116480EF010FE05460028D5
:1013D000B8D1584605A986F851401AF069FB044671
:1013E00040B110F1FA0F86F85150ABD00C480EF016
:1013F00007FEA9E7CDE90100DDE91623009051467B
:1014000005981AF077FE10F1FA0F044686F851504D
:1014100098D0EBE76FF0840496E76FF0850493E7CC
:1014200048610020000150052DE9F0414FF4C073E0
:101430000025274F88B080464FF0FF313846CDE970
:101440000253CDE90455CDE906550EF0CFFDD8B9CC
:101450000123064602A9404687F851301BF024FEBE
:10146000044660B9039B1A0A012A29D1DBB2802BFA
:101470001DD0404601A91AF01BFB044638B114F1F7
:10148000FA0F87F851600BD16FF0F9040BE0019867
:101490001AF064FC10F1FA0F044687F85150F3D0AB
:1014A00038460EF0ADFD204608B0BDE8F081384664
:1014B00087F851400EF0A4FD204608B0BDE8F08149
:1014C000384687F851400EF09BFD6FF08604EAE73E
:1014D00048610020F8B5104D06460F4628464FF0EB
:1014E000FF310EF083FD68B90123044639463046CA
:1014F00085F851301BF0D8FD10F1FA0F85F85140F6
:10150000044603D16FF0F9042046F8BD28460EF0DA
:1015100077FD2046F8BD00BF4861002030B41B496C
:101520001B4C1C4A012808BF2146536843F00403A2
:10153000536002F52022D2F8003FD807FBD44FF0C9
:1015400017450120144B154C1D605C609960C2F872
:10155000000FD2F8003F9A0709D40E4A1049536889
:1015600043F008035360D1F8003F9B07F7D530BC28
:1015700002210B4B0848074A0068C3F8001F536854
:10158000C01723F004035360704700BF040002003B
:10159000140002000030054000000F4047365A4F4B
:1015A00000300F4010B51DF0DBFC04462920FFF78A
:1015B000C3FD2920FFF7C2FD21460E481DF0A4FC03
:1015C00000200D4A0D4992F800320870022B0BD012
:1015D000012B00D010BDD2F80432002BFAD0BDE8A8
:1015E0001040D2F8080218470548BDE810400EF038
:1015F00007BD00BF10350020103400206A6D0020A8
:10160000EC610020F0B5DFF8B0E064209EF8003017
:101610004FF0A057012B0CBF4FF0140C4FF0040CEF
:1016200001260224214A2249224DD2F8003F13F01C
:101630000103FAD10F604D60C1F808C0CB60C2F859
:10164000006FD2F8003F9B07FBD50B68C2F8004F34
:10165000B3F1807F28D3013880B20028E5D1134947
:101660008EF80040D1F8003F13F00103FAD14FF09B
:10167000A055042201240E4805600E4D456082608D
:101680000A4AC360C1F8004FD2F8003F9B07FBD560
:10169000022307490868C2F8003FB0F1807F4FF08D
:1016A000FF3038BF0020F0BD0020F0BD00300F40FB
:1016B00000000F4047365A4F092D0020F0B585B085
:1016C000FFF726FD124E0446357825B12046FFF778
:1016D0002BFD05B0F0BD4FF0FF3701A8FFF758FD17
:1016E0000C4A01AB29210C488DF80C500297FFF7EA
:1016F00033FD0EF0FFFC0EF0CFFC294607480EF03C
:101700006FFC012320463370FFF70EFD05B0F0BDDE
:101710006B6D0020A5150100D8610020EC61002050
:10172000164803780BB90020704770B4144AD2F8F9
:10173000003FD907FBD44FF09E460124114B124DB8
:101740000F491E605D60C2F8004FD1F8003F9B0753
:10175000FBD50C4B1B68002B0DDB022410230B4A1E
:10176000C1F8004F5362136913F01003FBD10370EB
:10177000002070BC70474FF0FF30FAE70A2D0020C0
:1017800000300F4000000F4047365A4F0000024023
:10179000012804D0043818BF4FF0FF30704708B557
:1017A000FFF7BEFF003818BF0120404208BD00BF50
:1017B00070B53D4C82B0207800285FD110203B49A5
:1017C0003B4AD1F8FC3323F4E06323F0010343F4F4
:1017D000407343F00103C1F8FC3390611369D806EC
:1017E000FCD540204FF000450021324B324A334EA9
:1017F000C3F8106F55605060D3F8002F304842F0A6
:101800000402C3F8002FC3F8081FD3F8102F22F0EA
:101810008802C3F8102F1DF0C5F940B1FF2503233E
:10182000012269460095ADF804301DF05DFE0123EC
:101830002370204AD2F8003FD907FBD44FF0BE46B0
:101840000120204B204D1B491E605D60C2F8000F37
:10185000D1F8003F9B07FBD51C4A1A4B12781B6836
:10186000022A03F07F431CD0012A0FD04FF0FF3033
:101870000222104BC3F8002F02B070BD0128D8D04F
:10188000023818BF4FF0FF3002B070BD2BB1B3F17A
:101890004A4F02D0B3F14C4FE8D10223002023700D
:1018A000E6E7002BE2D1F8E70A2D002000400240D5
:1018B0000000024000300F4000300540FCFCFFFFFC
:1018C000E414020000000F4047365A4F092D002053
:1018D000084B187840B1084B9A7F032A05D0987FAF
:1018E000032894BF0020012070475A7F012AF6D1B7
:1018F000FAE700BF6C6D0020B46100202DE9F041D3
:10190000794C267826B1794B1D682846BDE8F081D0
:10191000FFF7FEFB242231460546754817F0ACFD63
:101920001021744AD2F8FC3323F4E06323F001035E
:1019300043F4407343F00103C2F8FC33A2F5804244
:1019400091611369D906FCD54FF000464020002173
:10195000694B6A4A6A4FC3F8107F56605060D3F8EB
:10196000002F42F00402C3F8002FC3F8081FD3F879
:10197000102F22F08802C3F8102FD3F8E02F8A42EC
:1019800047DBD3F8E02F12021CD52846FFF7CCFB2B
:10199000002301215B4A5C48FEF71EFC4FF4827075
:1019A000FEF778FC1DF0AAFA064600283AD04FF060
:1019B000FF331D464D4A13600122544B28461A70CE
:1019C000BDE8F081D3F8002FD707FBD44FF04F408C
:1019D00001214F4A10604F48506002F54052C3F851
:1019E000001FD2F8003F9E07FBD5494B1B68002B18
:1019F0005EDB0220484B4049C2F8000F01E0013B8A
:101A000007D0D1F8E02F1002F9D5FFF7FBFD002831
:101A1000BBD04FF0FF33354C28462360FFF784FBE3
:101A20002568C9E70EF054FB28B96FF003032F4A6D
:101A30001D461360C0E7394F4FF480723146384677
:101A4000C7F8086217F018FD4FF480723146B818D5
:101A500017F012FDFFF7ACFE054620B1C7F808628B
:101A60000EF042FBE1E70120FEF7CAFB224AD2F862
:101A7000003FD907FBD40121254B29481E4E186091
:101A800028485860C2F8001FD6F8003F9B07FBD5D6
:101A90001F4B1B68002B0FDA02220023C6F8002F11
:101AA000C7F808320EF020FB0120FEF7CDFB7EE7E1
:101AB0000223C2F8003FACE724221B490C4817F070
:101AC0009DFC4FF000080223C7F80882C6F8003FCB
:101AD0000EF00AFB0120FEF7B7FB0123034A237037
:101AE000C2F8008068E700BF6C6D0020B061002084
:101AF000B46100200040024000300F40003005403B
:101B0000FCFCFFFF911701009C610020092D0020C3
:101B100000000F4046577203FFFF0F0010340020F3
:101B20000000030F47365A4F04000F4070B56A4B50
:101B300084B01B78002B74D00022684B5B89039221
:101B4000180503D50025284604B070BD03A8FBF78F
:101B5000B7FC10B9039B002BF4D14FF0FF300EF00F
:101B6000B7FA002835D15E4E4FF0FF300EF0E2FAA2
:101B70005C4B64241D7800E0CCB12846FFF7CEFC16
:101B8000013CA4B20028F7D101900EF0DFFA0198D1
:101B9000C6F808020EF0A8FA0120FEF755FB002057
:101BA0000EF096FA00283FD16FF00305CBE7022034
:101BB000FFF7B4FC05460EF0C9FAC6F808420EF06D
:101BC00093FA0120FEF740FB002DE8D0284604B030
:101BD00070BD0024424E4FF4807221463046C6F854
:101BE000084217F049FC4FF480722146B01817F0F4
:101BF00043FCFFF7DDFD18B90120FEF701FBB3E759
:101C0000C6F808420EF070FAAEE702210023364A09
:101C1000C2F8001FC6F808320EF066FA0120FEF77F
:101C200013FB4FF0FF358EE700244FF480722146FE
:101C30002B48C6F8084217F01FFC4FF4807221466B
:101C40002A4817F019FCFFF7B3FD20B1C6F8084287
:101C50000EF04AFAA8E70120FEF7D2FA224AD2F89B
:101C6000003FD907FBD401234FF03C5020490860C6
:101C7000C2F8003FD2F8003F9A070AD41D4A01F586
:101C80004051536843F008035360D1F8003F9B076D
:101C9000F7D5174B1B68002BB7DB02210023124A34
:101CA000C2F8001FC6F808320EF01EFA0120FEF737
:101CB000CBFAFFF7A7FC054600287FF444AF03A842
:101CC000FBF7FEFB054600287FF43DAF039DB5FA08
:101CD00085F56D096D4236E76C6D0020B46100201A
:101CE00010340020092D002000300F401035002056
:101CF00000000F400030054070B50D460EF0E8F9C9
:101D000010B90024204670BD0E4E4FF480720021A1
:101D100004463046C6F8085217F0AEFB4FF4807206
:101D20000021B01817F0A8FBFFF742FD20B90120F1
:101D3000FEF766FA204670BD0023C6F808320EF0A2
:101D4000D3F9DEE710340020002208B5044BC3F8B5
:101D500008220EF0C9F9BDE808400120FEF774BA68
:101D60001034002038B5204D204B2D781C68022DF2
:101D70002BD104F07F44B4F1A05F32D0D3F80842F5
:101D800094422ED1042883F80002C3F804124FF0C5
:101D9000290014D0FFF7D0F92920FFF7DBF9FFF76E
:101DA000B7F9054611481DF0ABF8044680B9012289
:101DB0000F4B28461A70FFF7B7F9204638BDFFF7DA
:101DC000BBF92920FFF7BAF9E9E76FF00204F4E75D
:101DD0002846FFF7A9F92920FFF7AEF92920FFF7D8
:101DE000ADF94FF0FF34E8E70A2D00201034002051
:101DF0006A6D002010B5184C94F80032022B1BD0ED
:101E0000042B04D0012B15D04FF0FF3010BD04F58A
:101E100080701DF0ADF80022104B0E301A7017D0F4
:101E200094F80032042B10D1D4F8043213B1D4F852
:101E300008029847002010BD4FF0FF3108480EF00F
:101E4000D5F894F80032042BEED0022BECD0F1E759
:101E50006FF0010010BD00BF103400206A6D00203B
:101E6000EC61002070B5144EFFF752F93478FCB1E4
:101E700005462920FFF760F92920FFF75FF928467A
:101E8000FFF752F90D481DF073F800250E300CBF16
:101E90006FF001042C4635700EF058F9084BC3F86A
:101EA00008520EF021F90120FEF7CEF9204670BD50
:101EB000FFF73AF9204670BD6A6D0020103500200A
:101EC00010340020104B10B5D3F80031002B4FEA2E
:101ED000136403F4803207DA04F07F0464427AB1B9
:101EE0009B0305D4204610BD9B0344EA0204F9D5A8
:101EF000FFF788FB002818BF6FF01E04204610BDB6
:101F000024F48034ECE700BF10340020014BD3F8F8
:101F1000040170471034002003460A46014802219C
:101F20001DF042BA103500200A46014917F066BA82
:101F30002835002003461022022101481DF034BA42
:101F40001035002003460A46014802211DF02CBA34
:101F50001035002030B44FF08E450024034B1D6037
:101F60005C61C3E9032130BC9860704710340020E5
:101F7000D0B40F4606464FF0B8540021054BC2F3CB
:101F80000902C3E902671C601A6159619961D0BCFA
:101F9000704700BF1034002010B44FF0000C4FF019
:101FA0001C540A4BC1F3090141F000611C60186127
:101FB0005DF8044B9A60C3F814C0C3F818C0C3F8A6
:101FC0001CC0C3F820C0D960704700BF1034002087
:101FD0004FF05C52014B98601A607047103400203B
:101FE00001290CD15AB910B44FF02744054B986021
:101FF0001C601046C3E903125DF8044B70474FF0B4
:10200000FF30704710340020F8B590F8F7300446E0
:102010005A1ED2B2022A2DD8284901338E5C03F011
:10202000010294F8F6302068D4F8E470D4F8EC108B
:1020300003F00F0308B3C81C20F003000AB943F0F3
:1020400010034FF0985C00221D4DC5E9021768612E
:10205000C5F800C02A610EB943F02003AB61D4E992
:1020600001322A6203B1EB610023D4F8D420C5E920
:102070000A23F8BD01263246D3E70AB943F010031C
:102080004FF0905000220E4DC5E90217696128609B
:102090002A610EB943F020030026AB6104F10C0263
:1020A000D4F8F0300E210648EE611DF049F9002306
:1020B000D4F8D420C5E90A23F8BD00BF34150200C6
:1020C00010340020F0B5274B02461978B0F8B6302E
:1020D00090F8BA001F335B09022803F1010C0CBF12
:1020E000072606264FEACC0C51B11F49887F0328EA
:1020F00034D0897F032903D94FF0FF3ED76803E02E
:102100004FF0000E02F114074FF0C8540021DBB26B
:10211000164803EB032346EA0346B2F8B8300460DE
:10212000134C073304EA0C44D2E901C5C0E9081195
:102130008161C3F3C70141F0804145618660C4619C
:102140008762C0F82CE0C160D2F8C8200C21BDE83D
:10215000F040DB08C0F810C01DF0F2B8487F01283D
:10216000C7D1C9E76C6D0020B46100201034002095
:102170000000FF0F70B4037FC46A022B4FF0000110
:10218000C38908BF066B856B0CBF002400264FF087
:10219000C8501F33C3F3471303EB0323084A1B0440
:1021A00043F00103C2E904659461C2E9071170BC00
:1021B000C2E9091193601060D160D162704700BF1D
:1021C000103400204FF0C85290F80CC00021BCF130
:1021D000080F0CBF4FF02A0C4FF0160C0E4B10B42A
:1021E0001A60C2890D4C1F32C2F3471202EB022261
:1021F0004CEA02429A60C26AC3E90711C3E90911B5
:10220000DC60D962446B016B1A61826B1C63C3E9A9
:1022100005215DF8044B7047103400200401008054
:1022200038B5124C05464FF480720021204617F055
:1022300023F94FF480720021A01817F01DF94FF414
:10224000101200234FF0C8510948E26105F1500215
:10225000C4E90833A060E360A86AA262EA6AE362A4
:102260002B6B20612160A261636138BD10340020B6
:102270002B00080838B5134C05464FF48072002136
:10228000204617F0F9F84FF480720021A01817F0DB
:10229000F3F800234FF0C8520B49E360A160A96A2C
:1022A000C4E90933E362B5F848302161C3F30B0395
:1022B000E3612B6B226063616B6BA3616B6C2362C8
:1022C00038BD00BF103400202D000808F8B50E4CB2
:1022D0000D460646174600214FF48072204617F03F
:1022E000CBF84FF480720021A01817F0C5F8002336
:1022F0004FF0905223613523C4E90256C4E90553D7
:10230000E7612260F8BD00BF1034002038B5154CDD
:1023100005464FF480720021204617F0ADF84FF4C7
:1023200080720021A01817F0A7F800234FF0C852C0
:102330000D49E360A1606362E96AE362B5F8483081
:102340002161C3F30B0343F49003E36105F15003F0
:10235000A3622B6B226063616B6BA3616B6C236266
:1023600038BD00BF103400203000080870B50546A5
:10237000134C4FF48072002120462E6917F07CF830
:102380004FF480720021A01817F076F8F368686C9B
:102390002363AB6B0821A361B5F848304FF0C852F6
:1023A000C3F30B03C4E9073000230648C4E9043330
:1023B000C4E9020122606362A362E362636370BDE9
:1023C00010340020310008082DE9F047044682B09F
:1023D000E76F8946904600214FF480724F4817F00E
:1023E0004BF84FF4807200214D4817F045F87B1EE2
:1023F0000E2B237998BF1027222B00F08480282BE6
:1024000019BF6FF00F0A0026A668A6F1100A4FF058
:102410008072424D4FEA09332A60626A43EA4823D8
:1024200043F48043EA60A26A43F07003AA61226A1F
:10243000EB62D4F88C306F612F626A62AB60B9F1E5
:10244000000F02D0D4F8F4302B63B8F1000F5ED047
:10245000D4F8F4306B6394F89830012B12D0082B29
:102460000BD8012202FA03F313F4AA7F07D094F8E1
:102470009920216B2B4816F0C1FFEA6A05E013F0A2
:10248000A80FFAD0EA6A42F40042BAF1100F8EBFE8
:102490000021254B53F82A1094F899301B0603F0BD
:1024A000F85313430B43EB622379222B25D0D4F846
:1024B000F020D4F8F8300192C3B104221B480DEB90
:1024C000020116F09BFFEB6A43F48073EB624FF05E
:1024D0008072D4F88810D4F8F43069662A6413B195
:1024E000D4F88030AB6602B0BDE8F087324604F124
:1024F0009B010E4816F082FFE9E73246A1680B48BF
:1025000016F07CFFE3E7E668A6F1100A7FE794F88F
:102510009A20E16A064816F071FF9CE7103400200B
:102520001035002094340020F014020054340020B0
:10253000443400202DE9F047044682B0E76D894617
:10254000904600214FF48072544816F095FF4FF4E6
:1025500080720021524816F08FFF7B1E94F804C051
:102560000E2B98BF1027BCF1220F00F08D80BCF11C
:10257000280F19BF6FF00F0A0026A668A6F1100AEF
:102580004FF08073454D4FEA09322B60636A42EA8F
:102590004822EB60A36A42F48040AB61236A40F0BA
:1025A00050006B62E36E6F612F62AB60E862B9F15D
:1025B000000F02D0D4F8E4302B63B8F1000F02D042
:1025C000D4F8E4306B6394F87C30012B48D0082BAE
:1025D0000ED8012101FA03F313F4AA7F3DD094F839
:1025E0008020216B2F4816F009FFE86A94F804C098
:1025F000BAF1100F8CBF00212B4B94F8802098BFAC
:1026000053F82A1094F8813012061B0503F4700366
:1026100002F0F852134303430B43BCF1220FEB6269
:1026200036D0D4E93A230192FBB104221F480DEBC6
:10263000020116F0E3FEEB6A43F48073EB6294F858
:102640008120E2B9A26ED4F8E4306A6613B1D4F8FE
:10265000D430AB6602B0BDE8F08713F0A80FC7D046
:1026600042F4404040F05000C2E732460F4804F1C7
:10267000820116F0C3FE94F88120002AE2D0E16ABC
:102680000B4816F0BBFEDDE7E668A6F1100A77E717
:102690003246A168054816F0B1FED0E7103400209C
:1026A0001035002094340020F0140200543400202F
:1026B000843400202DE9F043036A90F804C0DF68F9
:1026C000BCF1220F07F1030683B026F00306D3E91D
:1026D00001893FD0BCF1280F31D090F8285005F087
:1026E000FB03022B4BD06FF00F020023043D18BFF9
:1026F0000125ED034FF0807E254C102AA760C4F819
:1027000000E005D8DFF890E05EF8222045EA0245B7
:10271000BCF1220FE56221D0426C0192826C1ABB9F
:102720001A461C4816F06AFE0023C4E90579C4F86D
:102730000C8026622361E36103B0BDE8F083836807
:10274000A3F1100290F8285005F0FB04022CCDD123
:102750000025CFE7C368A3F11002F3E70A460C484F
:1027600011211CF0EDFDDFE704220A480DEB020108
:1027700016F044FEE36A43F48073E362D4E7002377
:102780004FF08072024CA7602260E362C4E700BF92
:102790001034002054340020381502002DE9F04197
:1027A000866B044600790F3626F00F062228B046C5
:1027B00082B047D028283AD094F8485005F0EF036B
:1027C000022B54D06FF00F020023222D48F2200775
:1027D00008BF20274FF0807C294D102AAE60C5F835
:1027E00000C005D8DFF8A0C05CF8222047EA024705
:1027F0002228EF622AD0226D0192626D62BB1A46D6
:10280000204816F0FBFD04F1200210230D211C4886
:102810001CF096FDD4E90C32EB6000236E61AA61D6
:10282000C5F820802B61EB6102B0BDE8F081A368A0
:10283000A3F1100294F8485005F0EF07022FC4D11D
:102840002027C7E7E368A3F11002F3E70A460C4824
:1028500011211CF075FDD6E704220A480DEB020198
:1028600016F0CCFDEB6A43F48073EB62CBE74FF0DC
:102870008073034D2B602023AE60EB620023BAE728
:10288000103400205434002038150200F0B5476C95
:1028900090F804C0FE1CBCF1220F044683B026F061
:1028A000030646D0BCF1280F38D090F8400000F065
:1028B000FB03022B52D06FF00F0E0023042848F2C6
:1028C000100008BF10204FF08072294DBEF1100F8C
:1028D000AF602A6004D8274A52F82E2040EA02400E
:1028E000BCF1220FE86228D0E26C0192226D52BB4B
:1028F0001A46214816F082FD04F1200210230D2112
:102900001B481CF01DFDD4E90C32EB6000236F6105
:10291000AA612E622B61EB6103B0F0BD8368A3F165
:10292000100E94F8400000F0FB02022AC6D11020DD
:10293000C9E7C368A3F1100EF3E70A460C4811215A
:102940001CF0FEFCD8E704220B480DEB020116F048
:1029500055FDEB6A43F48073EB62CDE74FF0807373
:10296000034D2B601023AF60EB620023BCE700BF78
:10297000103400203815020054340020F8B5054604
:102980000C46164600214FF4807223482F6D16F036
:1029900073FD4FF480720021204816F06DFD95F80C
:1029A0004930022B2B6D1ED00F2B25D908224FF05A
:1029B000000C4FF09851184B84F0010486F001068A
:1029C000240144EA46141960E96C1443082AD960CA
:1029D0009C61D5E915019F60C3E907015F6108BFEC
:1029E000C3F828C0F8BD0F2B4FF0090210D8C7F16B
:1029F000100C4FB11027DCE78021EA6CC7F1100CF6
:102A0000D1540822002FF5D167464FF00F0CD0E7C4
:102A10004FF0000CCDE700BF10340020103500202F
:102A200010B400224FF08064044B89B21C60C3E9EB
:102A300003025DF8044B9960704700BF103400201A
:102A400000234FF4C07270B5046890B0054601468B
:102A50002068CDE90232CDE90433CDE90633FFF732
:102A60004BF9002857D02379222B39D0282B55D168
:102A700094F8403003F0FD02012A15D0052BE068E0
:102A800002A914BF4FF400764FF48076FEF722FDC2
:102A900090B188300CBF6FF004046FF00504FFF7AD
:102AA00053F9204610B070BDE06802A94FF480765B
:102AB000FEF710FD0028ECD120221B4B019600935D
:102AC0000DEB020104F14C03201DFEF713FC00285E
:102AD000DFD102A80DF078FB000A08A9206500E00C
:102AE000A1682046FFF7D2FE20680DF023FB80B1DD
:102AF0002A460E49207EFFF735F930B9FFF77AF9FB
:102B000018B96469204610B070BD0DF01FFB002499
:102B1000C5E7FFF719F96FF00104C2E7FFF714F9F1
:102B20006FF00604BDE700BF00404004B12C010077
:102B30002DE9F04104681E4623790546022B0F4615
:102B400090468AB027D0082B40F09F8094F8403000
:102B500003F0FD02012A1BD0052B14BF4FF40073B4
:102B60004FF4807301934A4B2022009302A904F191
:102B70004C03201DFEF7BEFB00285DD0883014BF3B
:102B80006FF005066FF0040630460AB0BDE8F0812C
:102B90004FF48073E6E7102E04F1040071D03D4934
:102BA0000DF0A8FD3C4804F1200114F0A9FE237E9D
:102BB000042B01D00F2E5DD83346204642463946BD
:102BC00003F09AFD2C6894F84030012B24D0227E2B
:102BD000E16B042A896801D00F2924D8052B35D050
:102BE0002E4B1A6F22625A6F62629A6FA262DB6F7B
:102BF000E362204666690DF001FE237E012BC3D1FE
:102C000028463146A56B94F84030E26BA847002671
