:10D10000380C0020212C02008D2B0200718B0200B4
:10D110007D8B0200898B0200A18B0200958B02009F
:10D12000000000000000000000000000913202003A
:10D130009D2B0200000000003D320200A12B0200E6
:10D14000A52B0200A92B0200F52002006535020084
:10D15000AD2B0200B12B0200B52B0200B92B02004F
:10D16000BD2B0200C12B0200C52B0200C92B0200FF
:10D17000CD2B0200D12B0200D52B0200D92B0200AF
:10D18000DD2B0200E12B0200E52B0200E92B02005F
:10D19000ED2B0200F12B0200F52B0200F92B02000F
:10D1A000FD2B020085350200012C020075350200BE
:10D1B000052C0200092C02000D2C0200112C02008B
:0CD1C000152C0200192C02001D2C02008E
:10D1FC0000015F5F00000000FE0B0000F93302002D
:10D20C00000400000000000000000000000000000E
:10D21C000000000000000000407100200000000031
:10D22C0001015F5F01000000FF03000059340200A0
:10D23C0000010000000000000000000000000000E1
:10D24C0000000000000000004075002000000000FD
:10D25C0001015F5F050100001F010000CDF000001F
:10D26C0000070000000000000100000001000000A9
:10D27C000000000000000000102D00200000000045
:10D28C00800000AE7816030020000000030F0000A1
:10D29C000100000011F000000100000001015F5FBF
:10D2AC002D0100000F030000FD0E01000010000016
:10D2BC00000000000000000005000000000000005D
:10D2CC0003000000A049002000000000901603009D
:10D2DC00800000AE000F0000010000000000000004
:10D2EC0010000000A41603007000000000050000F0
:10D2FC00010000000000000020000000B016030038
:10D30C00710000000005000001000000000000009A
:10D31C0040000000BC160300720000000005000075
:10D32C00010000000000000080000000D016030087
:10D33C007300000000050000010000000000000068
:10D34C000001000081340200953502002D0100001F
:10D35C000300000000000080CD340200AD35020057
:10D36C002D0100001B0000000000004019350200D8
:10D37C00A13502002D010000190000000000002062
:10D38C0001015F5F2C0100000F0300005920020017
:10D39C000010000000000000000000000100000070
:10D3AC000000000000000000680C002000000000DD
:10D3BC00E0160300700000AE000500000100000044
:10D3CC00000000001000000001015F5F2E01000052
:10D3DC000F020000F90A010000100000000000001C
:10D3EC00000000000100000000000000010000002F
:10D3FC00681C002000000000F4160300000500AEBD
:10D40C0000050000010000000000000010000000FA
:10D41C00A9200200052102002E01000002000000DC
:04D42C00000000807C
:10D44000F8B50D4617460446C0E9265700F1A00777
:10D4500048220021ED0F38461E461BF04DFE0023EA
:10D460009FED157BC4F8D8500225069A204606CABF
:10D47000C4F8C06084ED347BC4E9373384F8C85005
:10D4800023F0F6FC2146384602F0E0F8054638B1B4
:10D4900003280BD019280CBF012503252846F8BD09
:10D4A0002046052123F052FD2846F8BD04252846D4
:10D4B000F8BD00BFAFF300805D81FF7F000000007A
:10D4C00070B50546164C4FF48072002120462E6937
:10D4D0001BF012FE4FF480720021A0181BF00CFE0E
:10D4E0000DA1D1E90001EB6A326923610023C4E98F
:10D4F00009336361E36263634FF0C8532263AA6B2D
:10D50000C4E90201A2616A6C23602262B5F8482076
:10D51000C2F30B02E26170BD2E0008080800000093
:10D52000103400200000000070B50546184C4FF480
:10D530008072002120462E691BF0DEFD4FF48072C0
:10D540000021A0181BF0D8FD002233694FF0C8510C
:10D550002363AB6B6262A361B5F84830E262C3F348
:10D560000B0343F49003E361626300230022686CC1
:10D57000503520622160C4E9042303A1D1E90001F0
:10D58000A562C4E9020170BD2F0008080800000070
:10D59000103400200000000070B5826FC36E044696
:10D5A0009A42474B474A0D46DA62037E84B020D048
:10D5B000042B01D00F295ED80026636B404AC2F8C5
:10D5C0009030A36BC2F89430E36BC2F89830236CB0
:10D5D000C2F89C30002E37D0237E022B02D00020D0
:10D5E00004B070BDEFF30583002B51D0606904B027
:10D5F00070BD042B01D00F2950D800269FED2E7B43
:10D6000094F88120E16AC2F10E030DF101008DED65
:10D61000007B8DED027B8DF800301BF02FFD01218A
:10D62000009B274A8DF80F10C2F89030019BC2F87A
:10D630009430029BC2F89830039BC2F89C30D069AA
:10D64000C307FCD4002EC7D1D4E9090133462A46CA
:10D6500008F0CEF8A26F1A4B521BA267D3F89020A5
:10D660006263D3F89420A263D3F89820E263D3F8DE
:10D670009C302364B3E70B46D0E9091208F094F814
:10D68000A36F01261B1AA367636E1B1A636694E7D8
:10D690004FF0FF310C4812F0E1FAA7E70B46D0E952
:10D6A000091208F081F8A36F01261B1AA367636EA5
:10D6B0001B1A6366A2E700BF000000000000000024
:10D6C00000000C402A002A014063002000000000F6
:10D6D00030B5C36905460C4685B0002B3ED1284BBA
:10D6E000284ADA629FED247B95F820202969C2F14F
:10D6F0000E030DF101008DED007B8DED027B8DF8A9
:10D7000000301BF0BBFC0021009A1D4B8DF80F1060
:10D71000C3F89020019AC3F89420029AC3F8982085
:10D72000039AC3F89C20DA69D207FCD42168EA691D
:10D73000C3F880106168C3F88410A168C3F888102A
:10D74000E168C3F88C10196F2160596F6160996F9F
:10D75000A160DB6FE3602AB905B030BD084B0A4A0F
:10D76000DA62BFE70123D5E9020105B0BDE8304028
:10D7700008F03EB8AFF30080000000000000000099
:10D7800000000C4028002A012A002A0100000000A5
:10D790002DE9F0470468DDE90889D4F8E050002D50
:10D7A00078D11E4694F8F030002B73D18E464FF09E
:10D7B000010A04F1040CD64507460FCA8CE80F0095
:10D7C0006561C4E91A68C4F8DC6084F87CE084F818
:10D7D0008090256784F87F50C4F8D88084F8F0A042
:10D7E00051D02022002104F182001BF085FC102280
:10D7F000002104F1A2001BF07FFC1022002104F1A3
:10D80000C4001BF079FC1022002104F1B2001BF0CF
:10D8100073FC002322792363282AA36503D12046C1
:10D8200005F05CFD0546102E05D9D4F8E4304BB167
:10D830002846BDE8F087B8F1100FF9D9D4F8E430E4
:10D84000002BF5D13946206804F030F940B33C682C
:10D85000302294F87C30012B19BF15A1D1E90001C9
:10D860000021114804F046FA3A4604200F4904F01A
:10D8700051F990B904F090F978B9656904F03CF970
:10D880002846BDE8F087B9F1000FAAD1102384F82B
:10D890008030A6E74FF0FF35CAE74FF0FF35EDE7E0
:10D8A0006FF00105C4E700BF02281400192F010022
:10D8B00002282400000000002DE9F84F0B680D46F7
:10D8C0001A780646022A5DD0082A5BD0222A02D0A6
:10D8D000282A40F0968095F820903468A9F1070234
:10D8E000062A00F28E80D4F8E020002A40F08980D9
:10D8F000D5E9067E17EB0E0F00F0838094F8F080D8
:10D90000B8F1000F7DD1012204F1040C84F87C20D1
:10D910000FCBC4F81480A5658CE80F006B68D5E9BF
:10D9200002BAD5E9042CC4E9083BC4E90AA2C4F848
:10D9300030C0C4F85CE0C4F86CE095F821303146A2
:10D94000002B08BF1023C4F8D8E0206884F8819029
:10D95000C4F8E480C4F8D470A766C4F8DC7084F816
:10D96000803004F0A3F800284ED0EB69102B01D9C9
:10D970001B070ED12379282B25D03046BDE8F84F60
:10D9800006F0DCB929463046BDE8F84F012205F023
:10D990008FBF3568302295F87C30012B19BF1FA14D
:10D9A000D1E9000100211A4804F0A4F9324604200C
:10D9B000184904F0AFF80028DCD104F0EDF8002895
:10D9C000D8D16B69D6E7204605F088FC04460028CC
:10D9D000D3D03568D5F8E40020B904F08DF820469E
:10D9E000BDE8F88F04F0B6F9324604200A4904F085
:10D9F00091F80028F1D104F0CFF80028EDD16B693F
:10DA0000EBE74FF0FF34EAE76FF00104E7E700BF10
:10DA100002281400192F0100F92E01000228240009
:10DA200000000000000000002DE9F84F0B680D46D3
:10DA30001A780646022A59D0082A57D0222A02D03C
:10DA4000282A40F0928095F820903468A9F10702C6
:10DA5000062A00F28A80D4F8E020002A40F085806F
:10DA6000D5E9067E17EB0E0F7FD094F8F080B8F161
:10DA7000000F7AD1022204F1040C84F87C200FCB31
:10DA8000C4F81480A5658CE80F006B68D5E902BA6C
:10DA9000D5E9042CC4E9083BC4E90AA2C4F830C0A3
:10DAA000C4F85CE0C4F86CE095F821303146C4F865
:10DAB000D8E0206884F8803084F88190C4F8E4804D
:10DAC000C4F8D470A766C4F8DC7003F0EFFF002838
:10DAD0004ED0EB69102B01D91B070ED12379282BCF
:10DAE00025D03046BDE8F84F06F028B92946304623
:10DAF000BDE8F84F022205F0DBBE3568302295F80C
:10DB00007C30012B19BF1FA1D1E9000100211A4867
:10DB100004F0F0F832460420184903F0FBFF002817
:10DB2000DCD104F039F80028D8D16B69D6E720465B
:10DB300005F0D4FB04460028D3D03568D5F8E400BE
:10DB400020B903F0D9FF2046BDE8F88F04F002F9B0
:10DB5000324604200A4903F0DDFF0028F1D104F029
:10DB60001BF80028EDD16B69EBE74FF0FF34EAE7D3
:10DB70006FF00104E7E700BF02281400192F01002D
:10DB8000F92E01000228240000000000000000001F
:10DB900030B504680546606983B0002854D1C1B12E
:10DBA00094F87CC06267BCF1010FA267A166C4F85B
:10DBB000DC10E26684F88030206784F87F00C4F8C7
:10DBC000D82044D0102917D9D4F8E430D3B103B009
:10DBD00030BD002A4DD094F87C1062670129A267FD
:10DBE000A066C4F8DC00E26684F88030206784F820
:10DBF0007F00C4F8D82030D0102AE8D9D4F8E43017
:10DC0000002BE4D12946206803F050FF70B32C6844
:10DC1000302294F87C30012B19BF19A1D1E9000101
:10DC20000021154804F066F82A460420134903F041
:10DC300071FFC0B903F0B0FFA8B96069019003F0AB
:10DC40005BFF019803B030BD606903B030BD002BAD
:10DC5000B8D1102384F88030B4E7002BCCD1102346
:10DC600084F88030C8E74FF0FF30E7E76FF001003D
:10DC7000ADE74FF0FF30AAE702281400192F01008A
:10DC800002282400000000002DE9F04104684A4AFF
:10DC900094F84810494B11F0100F94F849100546BC
:10DCA0000CBF4FF400604FF48060012908BF134699
:10DCB00022798AB0222A09D0282A50D0A26D62B1D6
:10DCC0004FF0FF3630460AB0BDE8F081A36DA7687B
:10DCD000002BF5D12646F26801E0264617460129B9
:10DCE00019BF33A1D1E900010021354804F002F841
:10DCF0002A460420334903F00DFF0028E0D103F049
:10DD00004BFF0028DCD17669002EDBD1206812F0B1
:10DD100049F8002845D00123D5F8008084F8613007
:10DD200098F80430222B36D0282B14BF3146D8F86F
:10DD300008103846D8F8582003F0F0FF2A4604208F
:10DD4000214903F0E7FE48BB03F026FF30BBD8F8BB
:10DD5000146012F033F830460AB0BDE8F08101904B
:10DD60000093202204F1580302A9201D03F048FA71
:10DD700006460028A6D1A26D52B92E68337996F8CE
:10DD80004910222B12D0282B02AFA8D1B268A6E7E7
:10DD900084F8610096E7D8F80C10CAE74FF0FF3618
:10DDA000D7E703F0A9FE6FF001068BE702AF92E719
:10DDB00001281208000000000002C0030001C00397
:10DDC000012812000D470100C146010000000000BB
:10DDD0002DE9F0470468064694F84830676C13F064
:10DDE000EF0336D0626D002A4AD04FF000094FF0A1
:10DDF000FF385D1EBB6818BF01250F2B30D93A686C
:10DE0000E2641A071CBF002523F00F0320462A46B0
:10DE10004946236504F074FC206811F0C3FF002814
:10DE20004CD032463249207E03F074FE38B903F0FC
:10DE3000B3FE20B9D4F814804046BDE8F08711F055
:10DE4000BDFF304606F0B8FC03F056FE4046BDE884
:10DE5000F0870125BB684FF0FF380F2BA946CED8BD
:10DE600004F1300A1022002150461BF045F95046BB
:10DE7000BA6839681BF002F9BB68C4F84CA0C5E762
:10DE800094F849301022012B19BF17A1D1E90001E4
:10DE90000021184803F02EFF32460420164903F0F3
:10DEA00039FE80B903F078FE4FF0010994F848304C
:10DEB00090B9D4F8148003F0EF039AE703F01CFE46
:10DEC0006FF00108B8E794F848304FF001094FF0BF
:10DED000FF3803F0EF038CE74FF0FF3803F0EF0358
:10DEE00087E700BFAFF3008002281208000000009F
:10DEF00051480100022812002D47010000000000D7
:10DF0000F8B50468E66D751C3AD00F4694F84910D0
:10DF10000546022936D0F96801390F2935D894F819
:10DF2000606096BB84F8483004F1040C0FCA676443
:10DF300066618CE80F00102304F120001946324678
:10DF40006665A6650BF01EFB2946206803F0AEFD52
:10DF5000002839D02846FFF797FEBB680646102BED
:10DF600001D91B0714D136B92846BDE8F840FFF7A0
:10DF70002FBF4FF0FF36284606F01EFC03F0BCFD15
:10DF80003046F8BDB9680029C5D14FF0FF36F7E734
:10DF90002C68102294F84930012B19BF0EA1D1E949
:10DFA000000100210A4803F0A5FE2A460420094981
:10DFB00003F0B0FD0028DCD103F0EEFD0028D8D13D
:10DFC0006669002ED0D0D6E76FF00106D8E700BF13
:10DFD000022812002D47010002281208000000004C
:10DFE0002DE9F8430468DDF82080D4F8EC50002DCA
:10DFF00072D11E4694F8FC30002B6DD18E464FF046
:10E00000100904F1040C07460FCA8CE80F0084F8CD
:10E0100098E0656120222946C4F89080C4F88860A1
:10E02000C4F88C80C4F89460E567C4F8805084F824
:10E03000999004F19B001BF05FF84A46294604F1D1
:10E04000BB001BF059F84A46294604F1DC001BF0DE
:10E0500053F84A46294604F1CB001BF04DF8012342
:10E0600084F8FC3023792563282BA56703D120464B
:10E0700008F02CFB0546102E05D9D4F8F4304BB12E
:10E080002846BDE8F883B8F1100FF9D9D4F8F43078
:10E09000002BF5D13946206803F008FD20B33C6819
:10E0A000302294F89830012B07BF12A1D1E900016A
:10E0B00012A1D1E9000103F01DFE3A4604200C49EB
:10E0C00003F028FD58B903F067FD40B9656903F016
:10E0D00013FD2846BDE8F8834FF0FF35D0E703F085
:10E0E0000BFD4FF0FF35F2E76FF00105C8E700BF09
:10E0F000E965010002281408000000000228240835
:10E1000000000000000000002DE9F843D1E9067E80
:10E110001EEB070F046800F09780D4F8EC30002B5A
:10E1200040F0928094F8FC80B8F1000F40F08C80B1
:10E1300001230D4684F898300B6804F1040CC4F8F0
:10E140001480A16706460FCB8CE80F006B68D5E9F9
:10E150000290D5E9042CC4E90839C4E90A02C4F8DC
:10E1600030C0C4F87CE0C4F88CE095F82130C4F8E5
:10E170008070002B08BF1023C4F8887095F8202009
:10E180003146C4F890E084F89A20C4F89470C4F83A
:10E19000F48084F89930206803F088FC002856D079
:10E1A000EB69102B0ED8237904F13405282B28D0E5
:10E1B0001022002128461AF09FFF3046BDE8F843A0
:10E1C00008F018BC1B07EED03568302295F898305F
:10E1D000012B07BF24A1D1E9000125A1D1E900014C
:10E1E00003F088FD324604201D4903F093FC88BBF0
:10E1F00003F0D2FC70BB6B69237904F13405282B42
:10E20000D6D1204608F062FA0446102200212846A2
:10E210001AF072FF002CD0D03568D5F8F40020B980
:10E2200003F06AFC2046BDE8F88303F093FD324614
:10E2300004200C4903F06EFC0028F1D103F0ACFC83
:10E240000028EDD16B69EBE74FF0FF34EAE76FF0A0
:10E250000104E7E703F050FCA5E700BFAFF300803F
:10E26000E9650100CD6501000228140800000000E6
:10E2700002282408000000002DE9F843D1E9067EB9
:10E280001EEB070F046800F09480D4F8EC30002BEC
:10E2900040F08F8094F8FC80B8F1000F40F0898046
:10E2A00002230D46064684F898300B6804F1040CEE
:10E2B000C4F81480A1670FCB8CE80F006B68D5E918
:10E2C0000290D5E9042CC4E90839C4E90A02C4F86B
:10E2D00030C0C4F87CE0C4F88CE095F82130C4F874
:10E2E000807084F89930C4F8887095F820303146F1
:10E2F000C4F890E084F89A30C4F89470C4F8F480BC
:10E30000206803F0D3FB002856D0EB69102B0ED801
:10E31000237904F13405282B28D010220021284627
:10E320001AF0EAFE3046BDE8F84308F063BB1B076D
:10E33000EED03568302295F89830012B07BF24A124
:10E34000D1E9000124A1D1E9000103F0D3FC324658
:10E3500004201D4903F0DEFB88BB03F01DFC70BBED
:10E360006B69237904F13405282BD6D1204608F0B7
:10E37000ADF904461022002128461AF0BDFE002CFB
:10E38000D0D03568D5F8F40020B903F0B5FB2046AD
:10E39000BDE8F88303F0DEFC324604200B4903F0AD
:10E3A000B9FB0028F1D103F0F7FB0028EDD16B6930
:10E3B000EBE74FF0FF34EAE76FF00104E7E703F023
:10E3C0009BFBA5E7AFF30080E9650100CD65010087
:10E3D00002281408000000000228240800000000A1
:10E3E00030B503680446586983B000283FD181BB2B
:10E3F000002A47D0C3E92202C3F89400C3F8902052
:10E40000102A32D9D3F8F4207ABB2146186803F0D9
:10E410004DFB002833D02568302295F89830012B29
:10E4200007BF1CA1D1E900011CA1D1E9000103F043
:10E4300061FC22460420164903F06CFBD0B903F0BE
:10E44000ABFBB8B96869019003F056FB019803B0C3
:10E4500030BD1029C3F89410C3E92212C3F89020EC
:10E46000CED9D3F8F420002ACFD003B030BD5869FC
:10E4700003B030BD03F040FB4FF0FF30E3E76FF037
:10E480000100F2E74FF0FF30EFE700BFAFF300808D
:10E49000E965010002281408000000000228240891
:10E4A00000000000000000002DE9F047046894B06F
:10E4B000A36A013300F040830022237F0746012B2B
:10E4C000228201D0022B44D1A3695E68002E40D085
:10E4D000A34D31682B6899424BD1B269AB699A421E
:10E4E00047D1696870680BF02FF8002840D0B269F6
:10E4F000296930690BF028F8002839D0E023012081
:10E5000019466074E381207304F1400304F13C0276
:10E5100020F0A6FB002800F097822268137803F011
:10E52000DF01022902D0282B40F024826068257F79
:10E530000178012D01F0DF0148D002293AD06FF0B7
:10E540002205284614B0BDE8F087607C002840F022
:10E550007283207B431E072B00F26F83DFE813F0EA
:10E56000DB00C600BC00EF00C600BC00E600E00017
:10E5700031687C4D2B688B4240F0F980B269AB6901
:10E580009A4240F0F480696870680AF0DDFF002864
:10E5900000F0EC80B269296930690AF0D5FF0028E3
:10E5A00000F0E4804FF4807101200223E181607467
:10E5B0002373A9E7A168097801F0DF01042907D0D6
:10E5C0006FF02305284614B0BDE8F0870429B6D1C2
:10E5D0001B07E38954BF916851680733B1EBD30F30
:10E5E0004FEAD30640F0B782A37F8268002B55D153
:10E5F00049000131914240F08480022D00F0848076
:10E60000012D66D1002140681AF076FD002190228C
:10E6100004F144001AF070FD3946206A03F046FA0E
:10E62000002800F0BF82206A11F0BCFB002800F037
:10E63000B7823E6833681A78282A00F09E813546F2
:10E640004FF00008D3F80490EA892B7B1F3252095F
:10E65000082B02F1010207BF3DA1D1E900013EA153
:10E66000D1E90001920003F045FB3A4604203E49FF
:10E6700003F050FA002840F0E28103F08DFA002800
:10E6800040F0DD81AD6A002D00F0928002F0E8FFDD
:10E6900011F094FB284614B0BDE8F087237B082BCB
:10E6A0002DD0B2EB410F2CD1022DA9D1A3689968CE
:10E6B0008E4200F03281B1EB460F4FEA460203D0A2
:10E6C0000132914240F07182002158681AF014FD25
:10E6D0009CE7A3689A68F7E74FF4C0710328E181CB
:10E6E00009D040F20123022023820DE74FF480710C
:10E6F0000228E181F5D101231846637404E79142B1
:10E70000D2D06FF025051CE743681B78042BCDD0D1
:10E710006FF0280515E7E0210123E1816374F3E63A
:10E72000FF2303201946E3816074EDE64FF4007384
:10E7300040F2012202201946E3812282E4E640F2FF
:10E74000092301201946E3816074DDE6AFF3008000
:10E7500001484104000000000148210400000000BD
:10E76000501C0200341D0200FD6F01003168BA4DDB
:10E770002B688B4240F02981B269AB699A4240F024
:10E780002481696870680AF0DFFE002800F01C81AF
:10E79000B269296930690AF0D7FE002800F01481B7
:10E7A0004FF4C07101200323E18160742373ABE651
:10E7B0000123D7F800A086F8D430BAF80E501F35E0
:10E7C0006D091D44AD00B8F1000F00F0A8809AF863
:10E7D0000C30082B0BD199F8043023F0070389F88B
:10E7E000043099F8233043F0400389F82330294658
:10E7F0004846DAF82C2003F091FA3A46042097496B
:10E8000003F088F9002840F01A8103F0C5F90028C8
:10E8100040F01581DAF82850002D7FF437AFD7F893
:10E820000080B8F80E2098F80C301F325209082BDF
:10E8300002F1010200F0C38000218948D20003F0F8
:10E8400059FA3A460420874903F064F9002840F059
:10E85000F68003F0A1F9002840F0F180D8F82850A4
:10E86000002D7FF413AF98F81C80B8F1020F00F070
:10E87000298102F0F5FE002840F0C480337F022B8E
:10E8800000F0C0803D6800212A6C774803F032FA1E
:10E890003A460420754903F03DF9002840F0CF8046
:10E8A00003F07AF9002840F0CA80AD6A002D7FF4A9
:10E8B000EDAE3E68D6E90F01B26B03F02FFA3A468F
:10E8C00004206B4903F026F9002840F0898103F009
:10E8D00063F90546002840F08381B66A02F0C0FE65
:10E8E000002840F03E81002E40F0A381237B082BBE
:10E8F0003FF427AE3C68204603F0FEFA3A46042077
:10E900005C4903F007F9002840F09E8003F044F9C9
:10E91000002840F09980A56A13E63246D4E64146C5
:10E920000AF144082A4640461AF0E6FBDAF80030BD
:10E930009AF810205868BAF80E109AF81E30CDF8E0
:10E94000008011F089FA9AF80C30082B0BD19AF854
:10E95000483023F007038AF848309AF8673043F0CC
:10E9600040038AF8673029464046DAF82C2003F045
:10E97000D5F942E76FF02105E3E511F01FFA4FF4F6
:10E9800080453346DFF8F8C053F82C0B4822CDE918
:10E9900000C502A902F034FC0546306A11F002FA03
:10E9A0008046002800F0D280002D7FF46FAEF36A1D
:10E9B000002B40F0D3803D680DF1080944E6920039
:10E9C00023A1D1E900013AE731682B4D2B688B4236
:10E9D00059D1B269AB699A4255D1696870680AF039
:10E9E000B3FD00284ED0B269296930690AF0ACFD48
:10E9F000002847D040F2092101200423E1816074FE
:10EA0000237381E53D68EA892B7F1F32012B4FEA92
:10EA1000521200F09480920040F20140002103F075
:10EA200069F93A460420154903F074F838B903F03F
:10EA3000B3F820B9AD6A002D3FF424AF26E64FF0BD
:10EA4000FF3523E611F0BAF94FF0FF3579E500BF45
:10EA500001404100000000000C1B0200596F010042
:10EA6000014021001D70010001440F005D70010094
:10EA70007D700100716F0100501902003D700100AE
:10EA80000000020931686F4D2B688B4271D1B26969
:10EA9000AB699A426DD1696870680AF055FD00282B
:10EAA00066D0B269296930690AF04EFD00285FD04E
:10EAB0004FF48071052240F201230220E18122738C
:10EAC000238221E529463D689022EB8905F1440A1D
:10EAD0001F335B09504603F101091AF00DFB2B7B34
:10EAE000E989082B08BF4FF001086B6808BF4FEA9F
:10EAF000890958682B7CCDF804A095F81EC018BF72
:10EB00004FEAC9094246CDF800C011F0C3F94946A1
:10EB100050462A6B03F002F93A4604204A4902F0B3
:10EB2000F9FF00288BD103F037F8002887D1AD6AB0
:10EB3000002D7FF4ABAD9CE66FF01F0501E52B7B4C
:10EB40000132082B3FF467AFD20065E702F0D4FF33
:10EB50006FF001059AE56FF02405F2E486F8D450D1
:10EB60005DE611F02BF9002E3FF4C0AE3546E8E427
:10EB70003168364D2B6899421BD1B269AB699A4214
:10EB800017D1696870680AF0DFFC88B1B269296939
:10EB900030690AF0D9FC58B14FF4C07106228AE7F7
:10EBA00002F0AAFF6FF00105CBE46FF02605C8E480
:10EBB0003168274D2B6899421BD1B269AB699A42E3
:10EBC00017D1696870680AF0BFFC88B1B269296919
:10EBD00030690AF0B9FC58B14FF4007107226AE7B6
:10EBE00002F03EFD00287FF42DAF4FF0FF354FE5DA
:10EBF0003168184D2B6899427FF4A7ACB269AB69B4
:10EC00009A427FF4A2AC696870680AF09DFC002803
:10EC10003FF49BACB269296930690AF095FC002881
:10EC20003FF493ACFF2103200823E1816074237338
:10EC30006AE435462CE5E18966E400236FF020059F
:10EC400063747EE46C180200596F010028170200FB
:10EC500084150200881402002DE9F04F05688DB07C
:10EC60006B6A013300F0D0812B7D04465A1E012AC5
:10EC700076D9032B00F048816A68137819076DD59F
:10EC80005368202B40F08B81FF21042005F14003C5
:10EC900005F13C021FF0E4FF002800F083812146CB
:10ECA000286A02F003FF0646002800F07E812768EC
:10ECB0003B7D5A1E012A40F29380B8467868032BA8
:10ECC00072D0C1460026D0F804A0C6A1D1E9000147
:10ECD000242203F00FF822460420B94902F01AFF5B
:10ECE000002840F0F98002F057FF002840F0F4803F
:10ECF000D8F824503DBB012599F8142089F80A5012
:10ED0000023AAA42D4F8009040F200813B7D023BD7
:10ED1000012B40F2B2800021AA48D9F8402002F02D
:10ED2000E9FF22460420A84902F0F4FE002840F042
:10ED3000D38002F031FF002840F0CE80D9F8245073
:10ED4000002D00F0B180204609F074F802F0D4FEE6
:10ED500028460DB0BDE8F08F04281DD1936890E7D8
:10ED60002A68117801F0DF0002281BD0282913D16E
:10ED70005268202A40F040816968012B08780A46D1
:10ED800000F0DF00E8D00B780A4603F0DF0102292B
:10ED9000E4D0282B3FF474AF6FF0220528460DB065
:10EDA000BDE8F08F9268E4E70378282B89D14FF40F
:10EDB00000630193854B2422009303A908F12C03DF
:10EDC00002F01EFA05460028BDD1D8F82C30002BE1
:10EDD00040F01581C1460DF10C0AD4F8008074E7AB
:10EDE00038680378282B00F0BD803D464FF00009BD
:10EDF000D0F804806EA1D1E90001242202F07AFF4C
:10EE000022460420724902F085FE002864D102F0F7
:10EE1000C3FE002860D16D6A002D94D14FF0010A25
:10EE200025682B68D3F804B087F809A0B9F1000F62
:10EE300055D040462421AA6A02F070FF22460420E1
:10EE4000644902F067FE002842D102F0A5FE0028C6
:10EE50003ED16D6A002D7FF476AFD4F8008098F82B
:10EE60001430022BD8F804007FF429AF0378282B44
:10EE70007FF427AF4FF480639BE74FA1D1E90001F6
:10EE8000402202F037FF22460420534902F042FE9E
:10EE900010BB02F081FEF8B9D9F82450002D7FF4A0
:10EEA00052AFD4F8009036E72568D5E90F012A6BF8
:10EEB00002F034FF22460420484902F02BFE58B9E4
:10EEC00002F06AFE40B96D6A002D3FF467AF3AE781
:10EED000013001D102F010FE4FF0FF3533E705F1AC
:10EEE00050084946242240461AF006F95846524630
:10EEF0005346FF21CDF8008010F0AEFF404624219C
:10EF0000AA6A02F00BFF99E769683CE7002E3FD13F
:10EF1000314609F15006242230461AF0EDF8D9F8AE
:10EF200004302A465868FF212B46CDE9005610F0E0
:10EF3000B1FF30462421D9F82C2002F0EFFE224602
:10EF40000420274902F0E6FD0028C5D102F024FE86
:10EF50000028C1D1D9F82450002D7FF4F4AED4F8A4
:10EF60000090D3E64FF48042184B03A9CDE900325C
:10EF7000242207F1280302F043F9054600287FF414
:10EF8000E2AEBB6A93BBB14625680DF10C0831E7D0
:10EF900050462421D9F82C2002F0C0FECFE76FF0B4
:10EFA0000605FBE64FF0FF35F8E66FF01F05F5E6C6
:10EFB00001485038000000000228D0010000000085
:10EFC0008D7D010001440F00CD7D01000008000689
:10EFD0006D7D0100557D0100AD7D0100057E0100C4
:10EFE0001D7E01000140503800000000D4F8008070
:10EFF000787298F8143034E76FF00505CEE6D4F84F
:10F00000009088F80A0081E66FF02005C6E600BF90
:10F0100040F2E932F0B503680446934285B026D049
:10F0200040F2EA3293421DD10369042B48D1036AAE
:10F03000042B45D1856824480021056002AA606838
:10F040001AF0C4F8042806463AD1029803A900F041
:10F050008FF9054640B901463346606803AA1AF0A5
:10F06000C1F801E06FF08505284605B0F0BD0669DE
:10F07000076A731E3F2B23D817B38268124B0021F7
:10F0800040681A601AF0EAF80021054660681AF034
:10F09000F5F8024603A800903B462846314600F0AA
:10F0A0003DF905460028DFD129466068039A1AF029
:10F0B000EDF8606829461AF0D9F8284605B0F0BD89
:10F0C0006FF08605D0E700BF205D002000F018B982
:10F0D000202230B58DB0054604A901A8019213F095
:10F0E0004BFE60B90446019B2846074902AA04ADBD
:10F0F000CDE9025300F094FA20460DB030BD05244E
:10F1000020460DB030BD00BF08DBFEFF30B50D4B13
:10F1100083B00193054600F05BFA6A4601A900F04E
:10F1200051F9044608B9009B13B1204603B030BD25
:10F13000284601220023044900F04CFA204603B07F
:10F1400030BD00BF02DBFEFF01DBFEFF38B500254E
:10F15000044613F0DFFD2B4602460349204600F02B
:10F1600039FA284638BD00BF06DBFEFF30B583B054
:10F17000054601A800F0D2FC044628B9019A2846A9
:10F180000349D31700F026FA204603B030BD00BF74
:10F1900007DBFEFF202230B58DB0054604A901A88B
:10F1A000019213F019FE60B90446019B28460749F5
:10F1B00002AA04ADCDE9025300F01CFA20460DB0BE
:10F1C00030BD032420460DB030BD00BF05DBFEFF7F
:10F1D00030B583B00546684600F07EF9044620B994
:10F1E0006A462846024900F005FA204603B030BDC1
:10F1F000FFDAFEFF002230B58BB0054602A92020C1
:10F20000CDE9002213F0CCFD60B90446202302A909
:10F21000284600916A460549019300F0EBF9204623
:10F220000BB030BD032420460BB030BD04DBFEFF25
:10F23000F0B5BDB004460D462E4802A9164621F091
:10F24000BDFCA0B9BDF8083003F44F42B2F5824FBF
:10F2500011D0B3F5885F0AD1BDF80A30B3F5C07F8D
:10F260001AD0B3F5007F3CD0B3F5807F37D00524AA
:10F2700020463DB0F0BDDBB2122BF8D1BDF80A300C
:10F28000B3F5C07F32D0B3F5007F2CD0B3F5807FCB
:10F29000EDD16FF0060300E0062300220095114631
:10F2A00002A8FEF7CDF8B0B92246134902A800F033
:10F2B000A1F9124D05F11C0755F8043F02A8984723
:10F2C00004460028D4D1AF42F6D1314602A800F05E
:10F2D0004DF90028CCD00128C9D10224C8E7052364
:10F2E000DBE70723D9E76FF02303D6E76FF02203AC
:10F2F000D3E700BF5D81FF7F00DBFEFF141102003A
:10F3000008B500F0E1F8042896BF034B6FF08300C6
:10F3100053F8200008BD00BF0411020000B587B0FB
:10F32000029221F01002202A00900191039306D04E
:10F33000402904D06FF0860007B05DF804FB002B75
:10F34000F8D0684604AA02A9FFF772FF28B9059B06
:10F35000089A136007B05DF804FB042802D96FF027
:10F360008300E9E7014B53F82000E5E704110200B0
:10F3700000236FF0004210B586B0CDE90232009351
:10F3800020F01003202B0C46019005D0402803D01C
:10F390006FF0860006B010BD684604AA02A9FFF708
:10F3A00047FF18B9059B236006B010BD042803D998
:10F3B0006FF0830006B010BD014B53F82000E9E761
:10F3C000041102002DE9F04F87B0019000285AD0B7
:10F3D0009046002A57D0002342F2160A1D46384FA5
:10F3E00004AE07F10409136002913B88534503D032
:10F3F000032007B0BDE8F08FB7F802B0BB44CB459F
:10F400001CD9304C05E0BDF8123004331C44A34530
:10F4100014D904222146304619F030FEBDF81030D0
:10F42000C3F38512AA42EED103F03F033F2BBDF890
:10F4300012B016D0062D0DD00135D6E7062D09D015
:10F44000CB4505F10105D0D842F2160339F8041C6A
:10F450009942CDD1D8F80030CBB9002007B0BDE833
:10F46000F08FD8F800300133012BC8F8003014D0E9
:10F470000434CDF814B00494092196E80C000198E6
:10F4800021F02CFDD6E7042007B0BDE8F08F0198ED
:10F49000042121F08BFD0020E0E7029B5BB11B689B
:10F4A00001981A460393DB1721F0FAFC0421019816
:10F4B00021F04CFDDCE70421019821F047FDD7E75E
:10F4C000245D0020285D00204FF4007201200149D6
:10F4D00000F02CBB245D002070B51D4D04462A6849
:10F4E00086B03AB1002C31D000201A4BC4E900326A
:10F4F00006B070BD184E009233685BB9174801A979
:10F5000021F05CFB00BB334641221549134821F032
:10F5100075FBC8B96846134921F096FBA0B9684647
:10F5200032680F4921F0B4FB70B90F4E68462022B3
:10F530003146074B21F0CEFB30B901232A6806F88B
:10F54000013C1A442A60CDE70320D1E70520CFE72C
:10F55000285F00202C5F0020505F00205D81FF7F2E
:10F56000545F0020090000022D5F002070B50446A2
:10F5700082B00D46052121F019FD214604F1A000BD
:10F5800000F0E6F858B1032819D0192803D1012357
:10F59000184602B070BD0323184602B070BD6E4617
:10F5A0002046314621F0E2FD01280346EFD050B954
:10F5B00096E8030085E80300184602B070BD0423F6
:10F5C000184602B070BD0223184602B070BD00BFDD
:10F5D000704700BF70B5164604461D460A46CB1755
:10F5E00021F05EFC32462B462046BDE8704021F0FB
:10F5F00057BC00BF134670B5D3E90065044682B01E
:10F600000A46CB1721F04CFC02212046CDE90065CB
:10F6100002AB13E90C0002B0BDE8704021F05EBC03
:10F62000134670B5D3E90065044682B00A46CB178D
:10F6300021F036FC03212046CDE9006502AB13E939
:10F640000C0002B0BDE8704021F048BC2DE9F0414B
:10F650000446AAB0006A0E4600F0FCF800285BD011
:10F66000A36B9A0752D50421304621F06FFC182273
:10F670006B4604AD0094019293E806002846276A81
:10F6800021F0F6FB0521284621F060FC0122002331
:10F69000284621F005FC3A46FB17284621F000FCDD
:10F6A0000521284621F082FC284602A921F05EFDB2
:10F6B000074630BB029B039AA361E26123B304F1C6
:10F6C000180393E8030085E80300022195E80C0085
:10F6D000304621F003FCA36BDB0733D4D4E90F845D
:10F6E0000521304621F032FCDCB93046052121F0FD
:10F6F0005DFC0221304621F029FC38462AB0BDE8E5
:10F70000F0810023C4E906330227F6E71222002322
:10F71000304621F011FCA6E7012738462AB0BDE8A3
:10F72000F081B8F1000FE0D030460422002321F030
:10F73000B7FBCDE90484022195E80C00304621F0A6
:10F74000CDFBD2E71C2738462AB0BDE8F08100BFC8
:10F7500040232DE9F0430C462025ADB00DEB030608
:10F760001CAA14AFCDE90E750C9201213246054654
:10F7700020460D9321F086FCA37B1BB1012323744B
:10F78000192630E0237C012BFAD0002B42D12268CD
:10F79000D5F820C05AB30DF12008CDF8108002AF83
:10F7A0000EA903C987E8030096E803008DE803006B
:10F7B00005F11802604606CA00F052F8064690B9F4
:10F7C000AB6B0DF12809DB0729D599E8030012ABD3
:10F7D00083E8030002210CCB204621F07FFB0421AB
:10F7E000204621F0E3FB30462DB0BDE8F0830BABA3
:10F7F000029305F1300393E803008DE803002835F8
:10F800000A92604695E80C0000F010F90DF1280905
:10F810000646DAE7182630462DB0BDE8F083CDF86D
:10F82000189004AA0CA903C982E8030005F1280373
:10F8300098E803000CCB87E8030005F1300C9CE846
:10F8400003008DE80300286A00F090F80028BCD07F
:10F850000646C8E7C31D0CBF6FF00F0000207047BD
:10F860002DE9F041BCB06F4687E8060030210AAAB6
:10F870000292039102AA06CA3B4C804616A81E4675
:10F8800021F0F6FA042116A821F060FB204621F0B1
:10F89000B5FE0025CDE9084008AC032194E80C0032
:10F8A00016A821F01BFB97E8030084E8030002215F
:10F8B00094E80C0016A821F011FBCDE908550221AF
:10F8C00094E80C0016A821F009FB002E3CD1CDE9EC
:10F8D0000866022194E80C0016A821F0FFFA012521
:10F8E000042116A821F062FB16A804A921F03EFC11
:10F8F000002835D118F1070F0CBF6FF00F01002160
:10F9000006A800F0BDF8E0B9DDE904235B1B34BFB5
:10F910000121002100291CBF00230022CDE908237A
:10F9200006A894E8060000F0C9F842AB93E8060088
:10F9300006A800F0C3F844AA469B06A806CA00F031
:10F94000CBF83CB0BDE8F08142AB93E8030084E81B
:10F9500003000B2194E80C0016A821F0BFFABFE7C2
:10F9600015203CB0BDE8F0813411020082B010B522
:10F9700086B008A9073081E80C0005D0012006B048
:10F98000BDE8104002B0704705A8DDE90E41DDE991
:10F990000C23CDE90110009423490A9821F0C8F9FD
:10F9A00010F1850F32DA10F1970F29DB973011280B
:10F9B00026D801A353F820F023FA000001FA000032
:10F9C0001FFA000001FA000001FA000001FA00002D
:10F9D00001FA000001FA000001FA000001FA00003B
:10F9E0001BFA000001FA000001FA000001FA000011
:10F9F00001FA000001FA000001FA00007DF90000A0
:10FA0000172006B0BDE8104002B070470028F7D1BB
:10FA1000059B109AC2E90043B1E71020AFE70D2023
:10FA2000ADE71220ABE700BF0906000682B000B5C3
:10FA300087B008A9073018BF012081E80C0004D066
:10FA400007B05DF804EB02B0704700230A9801A9E3
:10FA5000CDE90133CDE90333059321F0AFF828B1A7
:10FA6000002007B05DF804EB02B07047BDF8062037
:10FA7000D308520718BF01330C9A5B001360EFE7FD
:10FA80004FF6FF720C4B10B511F1100F14BF114659
:10FA9000194600230360044621F0D6F8606038B1AF
:10FAA00010F1860F05D010F18A0F14BF0420052035
:10FAB00010BD032010BD00BF0900000210B582B0C8
:10FAC00002AB03E90600436823B919B1044621F0EB
:10FAD000DFF8606002B010BD70B582B002AC04E91E
:10FAE0000600426842B112F1860F13D08A3214BF69
:10FAF0000420052002B070BD1D46019A04330E4655
:10FB0000044621F0E7F8606002462E600028EAD142
:10FB100002B070BD032002B070BD00BF0346024AB0
:10FB2000002012681A607047205D002008B520F0A0
:10FB3000EFFF003818BF012008BD00BF10F40043DC
:10FB400070B419D001224FF4807140F202254FF4B5
:10FB500000740020284BC3F81052C3F81C22C3F8CD
:10FB6000C420C3F81842C3F800025965C3F8002244
:10FB70009965002070BC7047C2051ED51E48D0F89C
:10FB80000822002A27DB40F2DA551C4C2668226046
:10FB9000A6F5B7117339A9421DD8A2F5B71173396B
:10FBA000A94218D8921B9532B2F5957F13D84FF41D
:10FBB0000032426582652360DBE78303D9D50E4BB3
:10FBC000D3F8C0200A2A11D00A214FF40032C3F81A
:10FBD000C0109A65CDE7002001214FF48072064BDA
:10FBE000C3F80002C3F800129A65C2E7044A012074
:10FBF000C3F89C20BEE700BF00100040985F0020C3
:10FC000080841E802DE9F843344C206830B10123F4
:10FC1000836000F087FF002223689A600022304B47
:10FC2000304D3148314CD3F808802A601F69D3F831
:10FC30001490E468C5682E49A4B2ADB20C430D43DC
:10FC4000EFF3148616F002003ED082F31488BFF35F
:10FC50006F8F4FF070631046DB6C9847022383F37D
:10FC60001488BFF36F8F86F31488BFF36F8F1E4A1B
:10FC70001B4BD560A2F50032D4601E4AC3F8088041
:10FC80001F61C3F81490D2F8843043F00503C2F822
:10FC9000843001F0C1F91849184A0B6843F0020397
:10FCA0000B605378FF2B14D053780133DBB25370C1
:10FCB00001F0BEF94FF4004201200E4B10495A6585
:10FCC0009A650870BDE8F8834FF07063DB6C984765
:10FCD000CDE701F0ADF913F01DFAEBE7B05F0020BE
:10FCE00000E002E0B45F002000ED02E000ED00E083
:10FCF0000000FA0500100040346000203C60002045
:10FD0000082D0020F8B5834BDD6C2F045D65DD65A3
:10FD100000F1908015F00A0628D0D3F884207E4C9C
:10FD200022F00102C3F884205B6C180400F1D68035
:10FD30007A4F784AD2F8843043F00503C2F8843011
:10FD400001F06AF93B6843F002033B606378FF2BE4
:10FD500000F0BF8063780133DBB2637001F068F9B3
:10FD60004FF400426B4B5A659A659E6529074DD446
:10FD70006B4C236813B12846984710B9EB062ED474
:10FD8000F8BD002601204FF08042624B2660654995
:10FD9000C3F8B000D36A0C6843F00403D3622CB3F9
:10FDA000A368DA061FD5D4E9033200211020984752
:10FDB000C8B101F031F9584B5A78002A00F084801C
:10FDC0005A78013AD2B25A705B7823B9534A136811
:10FDD00023F00203136001F02BF9EB06D0D5BDE848
:10FDE000F84013F097B92468002CD9D101F014F928
:10FDF0004D4A136843F01003136001F019F94B4B9F
:10FE000018680028D5D000F083FED2E7414C01F0FD
:10FE100003F9D4F8A43023F00043C4F8A430D4F894
:10FE2000A43043F00043C4F8A43001F001F90823E2
:10FE3000A3659DE74FF400313A4A596514685CB3F5
:10FE4000A3681E0725D5D4E903320021082098476E
:10FE5000F8B1314C01F0E0F8637805F00A065BB3C5
:10FE60006378013BDBB26370637823B92B4F3B6847
:10FE700023F002033B6001F0DBF8002E3FF476AF85
:10FE8000244A264FD2F8843023F00103C2F884308C
:10FE90004FE72468002CD3D101F0BEF8224A136842
:10FEA00043F00803136001F0C3F8204B18680028E2
:10FEB000CFD000F02DFECCE701F0BAF813F02AF90C
:10FEC000002E3FF453AFDBE701F0B2F813F022F954
:10FED00054E701F0ADF813F01DF941E701F09CF88B
:10FEE00063784BB16378013BDBB26370637843B1F5
:10FEF00001F09EF8094F1CE701F09AF813F00AF997
:10FF000016E7064F3B6823F002033B6001F090F8D0
:10FF10000FE700BF001000403C600020346000206C
:10FF200044600020B85F0020B45F0020B05F002074
:10FF300070B584B001F070F82D4B1D7825B101F03B
:10FF400077F8002004B070BD01241C7001F070F837
:10FF500001A801F0A1F8274A01AB132126488DF82A
:10FF60000C5001F07DF803214FF4826018F0F2FF8D
:10FF70004FF0804048F20A06426C204B2049214D48
:10FF800042F4801242649E658C650C662C66D3F840
:10FF9000842042F00502C3F8842001F03DF81A499C
:10FFA0001A4A0B6843F002030B605378FF2B1AD0F8
:10FFB00053780133DBB2537001F03AF84FF400424A
:10FFC00010240E4B12495A659A65D3F8A4201320C9
:10FFD00042F00042C3F8A420C1F8004801F03EF806
:10FFE000002004B070BD01F023F813F093F8E5E7AA
:10FFF000686D002005FD00009C5F0020001000409F
:020000021000EC
:100000000020004000200240346000203C600020BE
:100010000050004010F47F4308D1124BC0B21A18B0
:100020001B5CD07FDBB2C0B218447047B3F5807F51
:100030000BD0B3F5007F11D10B4BC0B21A181B5C6B
:10004000D07BDBB2C0B218447047084BC0B21A185C
:100050001B5CD079DBB2C0B2184470476FF001006E
:10006000704700BFF05F0020C05F0020E05F00200D
:1000700010F47F4307D1104BC1EB41110B44C0B2C8
:10008000185CC0B27047B3F5807F0AD0B3F5007F2B
:100090000FD10A4BC1EB01110B44C0B2185CC0B2C6
:1000A0007047074BC1EBC1010B44C0B2185CC0B232
:1000B00070476FF001007047F05F0020C05F0020C4
:1000C000E05F0020034610B4034A044C0020236084
:1000D0005DF8044B116070473860002030600020EC
:1000E000844660B15AB1084608B56146CCE90202BF
:1000F000CCF81030034800F045FD002008BD6FF03B
:1001000002007047B85F0020042838B518D80446AC
:1001100000F082FF01230C49A3400D680B4A2B43DA
:100120000B60135DFF2B08D00025135D0133DBB29C
:10013000135500F07DFF284638BD4FF0FF35F8E736
:100140006FF00105F7E700BF346000203C6000203D
:10015000042810B51AD8044600F05EFF0D4B1A5D56
:100160008AB11A5D013AD2B21A551B5D33B9012228
:100170000949A2400B6823EA02030B60002400F047
:1001800057FF204610BD4FF0FF34F8E76FF0010431
:10019000F7E700BF3C6000203460002038B504461B
:1001A00000F03AFF14F47F43054610D12B4BE4B224
:1001B000185D19191A5DC97FFF285FFA80FCD2B259
:1001C000C9B224D1284600F033FF002038BDB3F572
:1001D000807F29D0B3F5007FF4D1214BE4B2185DC4
:1001E0001A19195DD27BFF285FFA80FCC9B2D2B21E
:1001F000E8D00CF1010C5FFA8CFC891803F804C0FC
:10020000E0D10123A34098B218F0B6FEDAE70CF172
:10021000010C5FFA8CFCCA4203F804C0D2D101235E
:10022000104AA3405361CDE70F4BE4B2185D191992
:100230001A5DC979FF285FFA80FCD2B2C9B2C1D079
:100240000CF1010C5FFA8CFCCA4203F804C0B9D16E
:100250000123044AA3409361B4E700BFF05F00208C
:10026000C05F002000000240E05F002070B505463E
:100270000C4600F0D1FE15F47F43064612D12A4BFE
:10028000C4EB4414EDB21C44615D5A195B5DD27F2E
:10029000FF29DBB2D2B2C8B223D1304600F0C8FE8B
:1002A000002070BDB3F5807F25D0B3F5007FF4D179
:1002B0001E4BC4EB0414EDB21C44625D5819595D29
:1002C000C37BFF2AC9B2DBB2D0B2E6D00130C0B2E4
:1002D000C9186055E1D10123AB4098B218F04CFE2B
:1002E000DBE70130C0B2D3426055D6D10123104ABA
:1002F000AB405361D1E70F4BC4EBC404EDB21C44D7
:10030000615D5A195B5DD279FF29DBB2D2B2C8B206
:10031000C3D00130C0B2D3426055BED10123044ADC
:10032000AB409361B9E700BFF05F0020C05F0020E1
:1003300000000240E05F002070B5044600F06CFE53
:1003400014F47F43054617D1254EE1B2725C02F0EA
:10035000FF03002A3ED0013BDBB220467354FFF777
:1003600059FE18B901231F4A8B4013620024284606
:1003700000F05EFE204670BDB3F5807F17D0B3F568
:10038000007F2AD11849E6B28A5D02F0FF030AB362
:10039000013BDBB220468B55FFF73CFE01460028AF
:1003A000E4D10120B04080B218F014FEDEE70F4E19
:1003B000E1B2725C02F0FF0362B1013BDBB22046A6
:1003C0007354FFF727FE0028D0D10123054A8B4044
:1003D0005362CBE74FF0FF34C9E76FF00104C6E783
:1003E000F05F002000000240C05F0020E05F0020BE
:1003F000F8B505460C4600F00FFE15F47F4306469F
:100400001AD12A4AC4EB4414E9B22244505C00F0E9
:10041000FF03002844D0013BDBB228465354FFF7CA
:10042000F9FD18B90123224A8B401362002430469B
:1004300000F0FEFD2046F8BDB3F5807F1AD0B3F57D
:10044000007F30D11B4BC4EB0414EFB22344D95DC1
:1004500001F0FF0221B3013AD2B22846DA55FFF784
:10046000D9FD01460028E1D10120B84080B218F042
:10047000B1FDDBE7104BC4EBC404EFB22344D95DFC
:1004800001F0FF0261B1013AD2B22846DA55FFF716
:10049000C1FD0028CAD10123054ABB405362C5E70C
:1004A0004FF0FF34C3E76FF00104C0E7F05F0020B6
:1004B00000000240C05F0020E05F0020F8B500F0BF
:1004C000ABFD394B394A1B681168044611B11268FB
:1004D00012681343D9070AD4354E3378012B0DD057
:1004E0006FF00405204600F0A3FD2846F8BD6FF02C
:1004F0000305204600F09CFD2846F8BD04232D4A44
:1005000033701568002D33D0AB689A072DD5D5E927
:10051000033200210220984738B3274A274B12782C
:100520001D78AA4298BF4FF0FF3C15D80020244FF9
:1005300000E00A46930003F1804303F544531B682F
:10054000511C9B0205D5FB6CD34013F0010F18BF63
:100550000120AA42EDD1F0B101234FF0FF35204632
:10056000337000F065FD2846F8BD2D68002DCBD115
:10057000144D286830B10223836000F0D3FA0022C2
:100580002B689A600C4A0D4B12781D78954205D362
:100590004FF0000CCAE7BCF1000FDDD14FF08043F3
:1005A0004AF2A5529A60D7E73460002030600020FC
:1005B000082D0020B85F00208D1E02008C1E020056
:1005C00000300240B05F002072B64FF08042D36A24
:1005D00043F00103D362FEE74FF08043186B20F431
:1005E0000040562832D856282DD8DFE800F02E2EAD
:1005F0002E2C2E2C2E2C2C2E2C2C2C2C2C2C2C2C33
:100600002C2C2C2C2E2C2C2C2C2C2C2C2C2C2C2C28
:100610002C2C2C2C2E2C2C2C2C2C2C2C2C2C2C2C18
:100620002C2C2C2C2E2C2C2C2C2C2C2C2C2C2C2C08
:100630002C2C2C2C2E2C2C2C2C2C2C2C2C2C2C2CF8
:100640002C2C2C2C2E004FF0FF307047B0F5003FC3
:10065000FBD0B0F5403F18BF4FF0FF30704700BFF0
:100660004FF080430122DA60704700BF70B501206F
:1006700002241E4B1E4A1F49C3F8C040C3F8900015
:10068000116000F0C9FC1C491C4A0B6823430B6035
:100690005378FF2B25D053780133DBB2537000F031
:1006A000C7FC00F0B9FC114B5A6C12F4004214D193
:1006B00001214FF4807440F202264FF40075C3F814
:1006C0001062C3F81C12C3F8C410C3F81852C3F860
:1006D00000225C65C3F800129C65BDE8704000F024
:1006E000A7BC00F0A5FC12F015FDDAE700100040F1
:1006F000446000203DFB0000346000203C6000208E
:10070000344BD3F84031DA0760D4334B98420BD0E6
:10071000324B984249D0A3F18B73A3F5A63398428C
:1007200033D06FF0010070474FF09C4292F85303B2
:10073000B2F8523392F852232949C0F34000C3F370
:10074000431302F01F025B0110B443EA4023254C1F
:100750001343204A6382D2F8443103F040430B43F1
:10076000C2F84431D2F8403143F00503C2F84031B9
:10077000936C1B03FCD5D2F84431002043F00043B6
:100780005DF8044BC2F8443170474FF09C4292F838
:100790005103B2F8503392F850231349C0F340008C
:1007A000C3F3431302F01F02CDE74FF09C4292F8CF
:1007B0005503B2F8543392F854234FF0FA61C0F362
:1007C0004000C3F3431302F01F02BCE74FF0FF30B9
:1007D000704700BF00100040002062050000DC05EB
:1007E000E9DE8008001100409A999909064BD3F878
:1007F000442122F00042C3F84421D3F8402122F0E2
:100800000102C3F84021704700100040B0F5803F5E
:1008100009D200F47F43B3F5807FC0B20FD0B3F5A7
:10082000007F07D00BB1002070471E288CBF00202E
:10083000012070470E288CBF002001207047062839
:100840008CBF00200120704710B500F0E5FB0022AE
:10085000034B1C681A6000F0EBFB204610BD00BF84
:10086000B45F0020064A08B5106010B1054B1B6844
:100870000BB9002008BD00F04BF9002008BD00BFF7
:10088000B05F0020B45F00202DE9F047064686B037
:10089000EFF39085012383F39088EFF3108783F3C0
:1008A0001088624C624A2168136813B113681B6890
:1008B0001943604B5B68C3F308334BB187F310886F
:1008C0004FF0000A85F39088504606B0BDE8F087E7
:1008D00001F00400890720D50028EFD187F31088A4
:1008E000EFF3908C012787F39088534E514823688B
:1008F000116811B1116809680B4313F0040104D1A8
:100900001B0754BFB764B16430BF4368C3F30833F7
:10091000002BECD08CF39088D2E74849D1F8C03056
:1009200003F00303012B62D06FF4FA78DFF82CC1D7
:100930004349DCF80431F31A43448B42CCD8414A92
:1009400041491369684623F0010313611822DCF85A
:100950004480DCF8449118F091FB042140F24440BB
:1009600018F0F8FA202000F06BFB384B963E5E62E0
:10097000374E3468002C42D0A368D9073CD5D4E95F
:100980000332002101209847002835D001224FF082
:10099000FF3A304B1A7001222C4B2F49DA6020208D
:1009A0005A650B6800F04CFB232140F244402B4C6D
:1009B00018F0D0FAD4F84031012BFBD16946182247
:1009C000214818F05BFBC4F84491C4F8448018F047
:1009D0002FFB3468DCB1A3685A0715D5D4E903327C
:1009E00000210420984778B187F310886AE78B6C60
:1009F0009B037FF563AF97E72468002CBCD1FFF71A
:100A000001F94FF0000AC6E72468002CE3D1144C2A
:100A100020680028E8D00423836000F083F80022D7
:100A200023689A6087F310884CE700BF3460002089
:100A30003060002000ED00E00000024000100040A7
:100A40000AFEBFFF00E002E04C210240002000400F
:100A5000B85F0020082D0020003000400020024038
:100A6000B05F002070B4EFF3908C012686F390887D
:100A70000D4C0E490E4D0F4823680A6812B10A68E2
:100A80001268134313F0040204D11B0754BFAE6471
:100A9000AA6430BF4368C3F30833002BECD08CF357
:100AA000908870BC704700BF346000203060002028
:100AB0000000024000ED00E040F661010C4A08B57C
:100AC0000C48D2F8183103400B43C2F81831D2F861
:100AD0001C3103400B43C2F81C31FFF729FAFFF722
:100AE000C5FD4FF08042536943F00103536108BDD7
:100AF0000010004000F0FFFF08B511F0D1FB11F02D
:100B000035FE4FF000414FF0FF3018F04FFBF8E793
:100B10000346012202491A73086820F0D1BB00BFC6
:100B20004C1102000346002210B50469806824F0CD
:100B300001041A7364086400214622462346B7EE76
:100B4000000AF7EE000AB7EE001AF7EE001AB7EE49
:100B5000002AF7EE002AB7EE003AF7EE003AB7EEB9
:100B6000004AF7EE004AB7EE005AF7EE005AB7EE29
:100B7000006AF7EE006AB7EE007AF7EE007A20F02E
:100B8000FDFC10BD38B505460C4600F045FA0022C4
:100B90006B68C4E900232BB11C606C60BDE8384071
:100BA00000F046BA2C606C60BDE8384000F040BAF6
:100BB00038B50C46054600F02FFAD4E9002332B1CF
:100BC00053603BB11A60BDE8384000F031BA6B6049
:100BD000002BF7D12A60BDE8384000F029BA00BFE9
:100BE00038B503680C465B7E9BB10B4D20462C68E4
:100BF0000EF05AFF2B68196AE06129B1084608F027
:100C0000F1FD00222B681A621846BDE83840FFF754
:100C10007FBF01F0ABFFE8E74860002038B503680C
:100C20000C465B7E9BB10B4D20462C680EF03CFFC2
:100C30002B68196AE06129B1084608F0D3FD00224B
:100C40002B681A621846BDE83840FFF761BF03F011
:100C50003BFAE8E74860002038B503680C465B7E45
:100C60009BB10B4D20462C680EF01EFF2B68196AB5
:100C7000E06129B1084608F0B5FD00222B681A6230
:100C80001846BDE83840FFF743BF04F087FBE8E7AC
:100C90004860002038B503680C465B7E9BB10B4D65
:100CA00020462C680EF000FF2B68196AE06129B11C
:100CB000084608F097FD00222B681A621846BDE826
:100CC0003840FFF725BF04F069FBE8E748600020E3
:100CD00038B503680C465B7E9BB10B4D20462C68F3
:100CE0000EF0E2FE2B68196AE06129B1084608F0AF
:100CF00079FD00222B681A621846BDE83840FFF7DC
:100D000007BF04F04DFDE8E74860002038B50368F0
:100D10000C465B7E9BB10B4D20462C680EF0C4FE4A
:100D20002B68196AE06129B1084608F05BFD0022D2
:100D30002B681A621846BDE83840FFF7E9BE05F097
:100D400083FAE8E74860002038B503680C465B7E0C
:100D50009BB10B4D20462C680EF0A6FE2B68196A3D
:100D6000E06129B1084608F03DFD00222B681A62B7
:100D70001846BDE83840FFF7CBBE05F097FFE8E71F
:100D80004860002070B5114D044608462E680EF0EC
:100D900073FE2B68196AF06129B1084608F022FD3C
:100DA00000222B681A62226892F8D52022B1BDE891
:100DB00070401846FFF7ACBE204606F0C3FA2B6819
:100DC000BDE870401846FFF7A3BE00BF4860002092
:100DD00070B504460846A3F10201B1FA81F1104D45
:100DE00049092E680EF0E8FD2B68196AF06129B1F7
:100DF000084608F0F7FC00222B681A62226892F875
:100E0000CD2022B1BDE870401846FFF781BE2046D4
:100E100006F0AAFE2B68BDE870401846FFF778BEC2
:100E20004860002070B504460846A3F10301B1FAFA
:100E300081F1104D49092E680EF0ECFD2B68196AFE
:100E4000F06129B1084608F0CDFC00222B681A6237
:100E50002268127A22B1BDE870401846FFF758BEEA
:100E6000204607F083FA2B68BDE870401846FFF76C
:100E70004FBE00BF4860002070B5114D04460846C3
:100E80002E680EF08DFD2B68196AF06129B10846B5
:100E900008F0A8FC00222B681A62226892F8F82059
:100EA00022B1BDE870401846FFF732BE204607F079
:100EB0006FFF2B68BDE870401846FFF729BE00BFE2
:100EC0004860002010B54FF4A052012300240848C8
:100ED00088B00590074908480291079001A902A827
:100EE000CDE9033206940EF089FC08B010BD00BFB6
:100EF00009060006127100015D81FF7F00234FF497
:100F0000C072F0B587B0CDE90032CDE90233CDE94A
:100F10000433FFF7D1FD08F0FBFB002861D100F09E
:100F2000F3F800286AD10EF019FD002863D1694654
:100F3000364809F01FFD002856D14FF0004018F048
:100F40007DF94FF0005018F079F94FF0804018F01B
:100F50007DF92F4C2F4E4FF000414FF0FF3018F02D
:100F600025F9C3060FD52146102018F027F923686C
:100F700053B345F6F022934208D06FF080016068C9
:100F800018F03CF9E7E718F041F9E4E7D4E9015338
:100F9000002B37DA2369042B34D13246002128464E
:100FA00018F014F903461722042B4FF0AC013068F7
:100FB0000CBF00276FF0800720F0D8F908B339463E
:100FC000284618F01BF9C6E7A068C00F09F0A0FC7E
:100FD0002046656808F0BCFC0146284618F00EF96A
:100FE000B9E718F013F99AE7FFF76CFF0028A4D0CF
:100FF00018F00CF9A1E718F009F998E718F006F9CC
:1010000091E730606FF08007D9E700BF5D81FF7F17
:101010004C60002048600020EFF39080EFF31083D5
:10102000012282F3908872B643EA0020704700BF25
:10103000C30700D462B6000A80F39088704700BFEF
:1010400020F070B920F024B9034B53F8203013B1CD
:10105000D3E90120104770477C60002020F000B9E0
:1010600010B5044648B153B118681B7AC4E9012091
:10107000084A216042F821403BB9204610BD05488E
:10108000626040F82140A3602160084620F0E8F843
:10109000204610BD7C60002030B100214FF0FF32AF
:1010A0000123016042600372704700BF00B5EFF397
:1010B0009083EFF3108C4FF0010E8EF3908872B690
:1010C0001CF0010FC0E901124CEA032300D162B603
:1010D0001B0A83F390885DF804FB00BF20F0F0B892
:1010E000704700BF4FF0FF3108B503480EF0B6FD62
:1010F000B0FA80F0400908BD4861002001480EF0B8
:10110000B7BD00BF4861002038B5184D2B7813B12A
:101110000024204638BD00F0B9FA0446F8B900F0C2
:1011200025FA2146204600F0C1FCD8B119F022FC76
:10113000044600F0E1FC002CEBD118F0AFF870B9D8
:101140000B4C94F8503013B101232B70E0E70121D0
:1011500020460EF07DFD012384F85030F4E76FF057
:101160008304D6E76FF0F904D3E700BF696D002070
:10117000486100202DE9F043204F0446894687B09E
:101180004FF0FF313846164698460EF067FD48BBD3
:10119000012387F8513046B3054605A92046C8F813
:1011A00000501AF0C5FA044658B110F1FA0F87F84A
:1011B000515017D038460EF05BFD204607B0BDE811
:1011C000F08301460F9B0E9A0598CDF80880019692
:1011D000CDF800901AF0CEFD10F1FA0F044687F812
:1011E0005150E7D16FF0F904E7E738466FF0890412
:1011F00087F851600EF03CFDDFE700BF486100203A
:101200002DE9F04F002407464FF4C075474E8DB0CE
:10121000884630464FF0FF3191469A46CDE9084462
:10122000CDE90A44D7F808B00795069404940EF067
:1012300015FD68B90123054606A9584686F85130C0
:101240001BF072FD10F1FA0F044686F8515005D1DB
:101250006FF0F90420460DB0BDE8F08F30460EF077
:1012600007FD002CF6D106A80EF0E8FD054606A8FD
:101270000EF0E2FD3B78040A082B20D02CBB179B14
:101280004A460193169B41460093584604ABFFF72C
:1012900071FF04460028DDD1002DDBD005F11F03CE
:1012A000049A5B090133B2EB830FD3D0B2EBC30FC7
:1012B000D0D07B689A4218BF6FF08304CAE7002C35
:1012C000DDD01B4B169A9A422AD1012C2BD14FF01C
:1012D000FF3116480EF0C2FC05460028B8D158462A
:1012E00005A986F851401AF023FA044640B110F1DE
:1012F000FA0F86F85150ABD00C480EF0B9FCA9E7B4
:10130000CDE90100DDE916230090514605981AF059
:1013100031FD10F1FA0F044686F8515098D0EBE7F2
:101320006FF0840496E76FF0850493E7486100202E
:10133000000150052DE9F0414FF4C0730025274FFF
:1013400088B080464FF0FF313846CDE90253CDE9F1
:101350000455CDE906550EF081FCD8B901230646A7
:1013600002A9404687F851301BF0DEFC044660B904
:10137000039B1A0A012A29D1DBB2802B1DD04046DB
:1013800001A91AF0D5F9044638B114F1FA0F87F81B
:1013900051600BD16FF0F9040BE001981AF01EFBBD
:1013A00010F1FA0F044687F85150F3D038460EF08A
:1013B0005FFC204608B0BDE8F081384687F8514010
:1013C0000EF056FC204608B0BDE8F081384687F89C
:1013D00051400EF04DFC6FF08604EAE748610020B2
:1013E000F8B5104D06460F4628464FF0FF310EF077
:1013F00035FC68B9012304463946304685F851303A
:101400001BF092FC10F1FA0F85F85140044603D10D
:101410006FF0F9042046F8BD28460EF029FC20465E
:10142000F8BD00BF4861002010B51DF0D9FB04468F
:101430002920FFF705FE2920FFF704FE21460E486C
:101440001DF0A2FB00200D4A0D4992F800320870F1
:10145000022B0BD0012B00D010BDD2F80432002B90
:10146000FAD0BDE81040D2F8080218470548BDE898
:1014700010400EF0FDBB00BF1035002010340020DE
:101480006B6D0020EC61002010202F4930B5D1F8A1
:10149000FC332E4A23F4E06323F0010343F440734A
:1014A00043F00103C1F8FC3383B090611369D8069F
:1014B000FCD54FF0004540240021254B254A264805
:1014C000C3F8102F254A55605460D3F8002F42F01E
:1014D0000402C3F8002FC3F8081FD3F8102F22F01E
:1014E0008802C3F8102F1DF09DF940B1FF2403239B
:1014F000012269460094ADF804301DF035FE144A0F
:10150000D2F8003FD907FBD44FF0BE450120144B61
:10151000144C0F491D605C60C2F8000FD1F8003F09
:101520009B07FBD50E4B1B68002B09DB00231846DD
:101530000D4A13700222064BC3F8002F03B030BDD2
:101540004FF0FF30F6E700BF0040024000000240CD
:1015500000300F40FCFCFFFF54110200003005403A
:1015600000000F4047365A4F6A6D0020F0B585B035
:10157000FFF752FD124E0446357825B12046FFF79D
:1015800057FD05B0F0BD4FF0FF3701A8FFF784FD10
:101590000C4A01AB29210C488DF80C500297FFF73B
:1015A0005FFD0EF0DFFB0EF0AFFB294607480EF0A3
:1015B0004FFB012320463370FFF73AFD05B0F0BD25
:1015C0006C6D002029140100D8610020EC6100201E
:1015D000164803780BB10020704770B4144AD2F853
:1015E000003FD907FBD44FF09E460124114B124D0A
:1015F0000F491E605D60C2F8004FD1F8003F9A07A6
:10160000FBD50C4B1B68002B0DDB022410230B4A6F
:10161000C1F8004F53621369DB06FCD40123037049
:10162000002070BC70474FF0FF30FAE76A6D002071
:1016300000300F4000000F4047365A4F0000024074
:10164000012804D0043818BF4FF0FF30704708B5A8
:10165000FFF7BEFF003818BF0120404208BD00BFA1
:10166000084B187840B1084B9A7F032A05D0987F21
:10167000032894BF0020012070475A7F012AF6D129
:10168000FAE700BF6D6D0020B46100202DE9F04144
:10169000754D2E7826B1754B1C682046BDE8F0814B
:1016A000FFF7BAFC242231460446714817F024FDA6
:1016B0001021704AD2F8FC3323F4E06323F00103D5
:1016C00043F4407343F00103C2F8FC33A2F58042B7
:1016D00091611369D906FCD54FF0004640200021E6
:1016E000654B664A664FC3F8107F56605060D3F86A
:1016F000002F42F00402C3F8002FC3F8081FD3F8EC
:10170000102F22F08802C3F8102FD3F8E02F8A425E
:1017100042DBD3F8E02F12021CD52046FFF788FCED
:1017200000230121574A5848FEF7DAFC4FF4827033
:10173000FEF734FD1DF022FA0446002835D04FF0A4
:10174000FF331C46494A13600122504B20461A7051
:10175000BDE8F081D3F8002FD707FBD44FF04F40FE
:1017600001214B4A10604B48506002F54052C3F8CB
:10177000001FD2F8003F9E07FBD5454B1B68002B8E
:1017800054DB0220444B3C49C2F8000FD1F8E02F53
:101790001002C2D4013BF9D14FF0FF33334D204644
:1017A0002B60FFF745FC2C68CEE70EF0C9FA28B98C
:1017B0006FF003032D4A1C461360C5E7374F4FF403
:1017C000807221463846C7F8084217F095FC4FF45E
:1017D00080722146B81817F08FFC314B1B78002B14
:1017E0003FD10120FEF790FC234AD2F8003FD907F1
:1017F000FBD40121264B2B481F4E18602A48586005
:10180000C2F8001FD6F8003F9B07FBD5204B1B6892
:10181000002B0FDA02220023C6F8002FC7F8083287
:101820000EF09AFA0120FEF793FC88E70223C2F833
:10183000003FB1E724221D490D4817F01FFC4FF06F
:1018400000080223C7F80882C6F8003F0EF084FAA9
:101850000120FEF77DFC0123044A2B70C2F80080B2
:1018600072E7FFF711FEBCE76D6D0020B06100204C
:10187000B46100200040024000300F4000300540BD
:10188000FCFCFFFF411601009C610020092D002097
:1018900000000F4046577203FFFF0F001034002076
:1018A0006A6D00200000030F47365A4F04000F40B6
:1018B00038B5734B1B78002B00F0DF80714B5B89D0
:1018C0001A05C3F3C02502D50024204638BD4FF0C9
:1018D000FF300EF035FA6C4C002840F0B3804FF02A
:1018E000FF300EF05FFA694B69481A7869496A4B14
:1018F000012A08BF19464368684A43F0040343605D
:10190000D2F8003FDB07FBD44FF017450120644BB2
:101910001D60A5F18F45A5F51715A5F6B9155D60F4
:101920009960C2F8000FD2F8003F9D0709D4584AC9
:101930005A49536843F008035360D1F8003F9807B1
:10194000F7D5574A156815F0FF051ED00220534BF6
:101950004F491568C3F8000F4B68EDB223F004033C
:101960004B600EF02BFA0023C4F808320EF0F4F9A5
:101970000120FEF7EDFB872D7FD100200EF0E0F96E
:10198000D0B96FF00304204638BD0221434B404AD2
:10199000C3F8001F536823F0040353600EF00EFADF
:1019A000C4F808520EF0D8F90120FEF7D1FB002050
:1019B0000EF0C6F90028E4D000254FF480722946C5
:1019C0003148C4F8085217F097FB4FF4807229464B
:1019D000344817F091FB344B1B78002B4AD101207F
:1019E000FEF792FB2D4AD2F8003FD907FBD4012322
:1019F0004FF03C502A490860C2F8003FD2F8003F3F
:101A00009A070AD4224A01F54051536843F008036B
:101A10005360D1F8003F9B07F7D50022204B0220EE
:101A20001B681E49DBB29B1A18BF0123C1F8000FC7
:101A3000C4F808225C420EF08FF90120FEF788FB03
:101A4000204638BD4FF4807229462046C4F808521B
:101A500017F052FB4FF480722946A01817F04CFB88
:101A6000114B1B781BB90120FEF74EFB37E7FFF740
:101A70000BFDF8E7FFF708FDB1E74FF0FF3424E76F
:101A80006D6D0020B461002010340020092D00206D
:101A900000300540040002001400020000300F4036
:101AA00000000F40103500206A6D002070B50D4613
:101AB0000EF046F9044608B9204670BD0C4E4FF4AE
:101AC000807200213046C6F8085217F015FB4FF41B
:101AD00080720021B01817F00FFB064B1B7823B95A
:101AE0000120FEF711FB204670BDFFF7CDFCF7E7A4
:101AF000103400206A6D0020002208B5044BC3F8A2
:101B000008220EF029F9BDE808400120FEF720BBAD
:101B10001034002038B51D4B1B789BBB1C4BD3F8F1
:101B2000084294422BD1042883F80002C3F804121F
:101B30004FF0290014D0FFF783FA2920FFF78EFA1F
:101B4000FFF76AFA054612481DF01AF8044668B90C
:101B50000122104B28461A70FFF76AFA204638BD5A
:101B6000FFF76EFA2920FFF76DFAE9E72846FFF73D
:101B70005FFA2920FFF764FA2920FFF763FA4FF094
:101B8000FF34EBE76FF00204E8E700BF6A6D002066
:101B9000103400206B6D002010B5184C94F8003202
:101BA000022B1BD0042B04D0012B15D04FF0FF309B
:101BB00010BD04F580701DF01BF80022104B0E3094
:101BC0001A7017D094F80032042B10D1D4F80432D4
:101BD00013B1D4F808029847002010BD4FF0FF3130
:101BE00008480EF03BF894F80032042BEED0022B9C
:101BF000ECD0F1E76FF0010010BD00BF1034002001
:101C00006B6D0020EC61002070B5144EFFF704FAF4
:101C10003478FCB105462920FFF712FA2920FFF796
:101C200011FA2846FFF704FA0D481CF0E1FF0025E1
:101C30000E300CBF6FF001042C4635700EF0BEF86C
:101C4000084BC3F808520EF087F80120FEF780FA1F
:101C5000204670BDFFF7ECF9204670BD6B6D00208B
:101C60001035002010340020084BD3F80031002B31
:101C70004FEA136003F4803206DA00F07F0040423E
:101C80001AB920F480307047104370471034002098
:101C9000014BD3F8040170471034002003460A4674
:101CA000014802211DF0C0B9103500200A46014943
:101CB00017F0E4B92835002003461022022101481C
:101CC0001DF0B2B91035002003460A460148022132
:101CD0001DF0AAB91035002030B44FF08E45002415
:101CE000034B1D605C61C3E9032130BC9860704701
:101CF00010340020D0B40F4606464FF0B8540021EF
:101D0000054BC2F30902C3E902671C601A615961FD
:101D10009961D0BC704700BF1034002010B44FF060
:101D2000000C4FF01C540A4BC1F3090141F0006153
:101D30001C6018615DF8044B9A60C3F814C0C3F8C6
:101D400018C0C3F81CC0C3F820C0D960704700BFDA
:101D5000103400204FF05C52014B98601A607047BD
:101D60001034002001290CD15AB910B44FF0274487
:101D7000054B98601C601046C3E903125DF8044BE4
:101D800070474FF0FF30704710340020F8B590F8DE
:101D9000F73004465A1ED2B2022A2DD82849013300
:101DA0008E5C03F0010294F8F6302068D4F8E470F9
:101DB000D4F8EC1003F00F0308B3C81C20F00300A4
:101DC0000AB943F010034FF0985C00221D4DC5E99D
:101DD00002176861C5F800C02A610EB943F02003FC
:101DE000AB61D4E901322A6203B1EB610023D4F87C
:101DF000D420C5E90A23F8BD01263246D3E70AB943
:101E000043F010034FF0905000220E4DC5E9021729
:101E1000696128602A610EB943F020030026AB6196
:101E200004F10C02D4F8F0300E210648EE611DF0EA
:101E3000C7F80023D4F8D420C5E90A23F8BD00BFB1
:101E4000A411020010340020F0B5274B0246197887
:101E5000B0F8B63090F8BA001F335B09022803F1DE
:101E6000010C0CBF072606264FEACC0C51B11F49C6
:101E7000887F032834D0897F032903D94FF0FF3EA0
:101E8000D76803E04FF0000E02F114074FF0C8547A
:101E90000021DBB2164803EB032346EA0346B2F8FF
:101EA000B8300460134C073304EA0C44D2E901C58E
:101EB000C0E908118161C3F3C70141F08041456168
:101EC0008660C4618762C0F82CE0C160D2F8C82087
:101ED0000C21BDE8F040DB08C0F810C01DF070B860
:101EE000487F0128C7D1C9E76D6D0020B46100208B
:101EF000103400200000FF0F70B4037FC46A022B6F
:101F00004FF00001C38908BF066B856B0CBF00242E
:101F100000264FF0C8501F33C3F3471303EB0323CE
:101F2000084A1B0443F00103C2E904659461C2E955
:101F3000071170BCC2E9091193601060D160D162D1
:101F4000704700BF103400204FF0C85290F80CC00A
:101F50000021BCF1080F0CBF4FF02A0C4FF0160CFB
:101F60000E4B10B41A60C2890D4C1F32C2F34712D7
:101F700002EB02224CEA02429A60C26AC3E90711EC
:101F8000C3E90911DC60D962446B016B1A61826B91
:101F90001C63C3E905215DF8044B70471034002031
:101FA0000401008038B5124C05464FF480720021C0
:101FB000204617F0A1F84FF480720021A01817F006
:101FC0009BF84FF4101200234FF0C8510948E2610A
:101FD00005F15002C4E90833A060E360A86AA26278
:101FE000EA6AE3622B6B20612160A261636138BD04
:101FF000103400202B00080838B5134C05464FF468
:1020000080720021204617F077F84FF4807200218B
:10201000A01817F071F800234FF0C8520B49E36085
:10202000A160A96AC4E90933E362B5F848302161C7
:10203000C3F30B03E3612B6B226063616B6BA361E2
:102040006B6C236238BD00BF103400202D000808DF
:10205000F8B50E4C0D460646174600214FF4807227
:10206000204617F049F84FF480720021A01817F0AD
:1020700043F800234FF0905223613523C4E9025600
:10208000C4E90553E7612260F8BD00BF10340020A9
:1020900038B5154C05464FF480720021204617F0E4
:1020A0002BF84FF480720021A01817F025F80023B8
:1020B0004FF0C8520D49E360A1606362E96AE362D0
:1020C000B5F848302161C3F30B0343F49003E36197
:1020D00005F15003A3622B6B226063616B6BA361FC
:1020E0006B6C236238BD00BF10340020300008083C
:1020F00070B50546134C4FF48072002120462E69BE
:1021000016F0FAFF4FF480720021A01816F0F4FFC9
:10211000F368686C2363AB6B0821A361B5F84830A2
:102120004FF0C852C3F30B03C4E90730002306483D
:10213000C4E90433C4E9020122606362A362E3627A
:10214000636370BD10340020310008082DE9F047AA
:10215000044682B0E76F8946904600214FF48072B2
:102160004F4816F0C9FF4FF4807200214D4816F019
:10217000C3FF7B1E0E2B237998BF1027222B00F064
:102180008480282B19BF6FF00F0A0026A668A6F1DD
:10219000100A4FF08072424D4FEA09332A60626A9A
:1021A00043EA482343F48043EA60A26A43F07003A1
:1021B000AA61226AEB62D4F88C306F612F626A6286
:1021C000AB60B9F1000F02D0D4F8F4302B63B8F152
:1021D000000F5ED0D4F8F4306B6394F89830012B84
:1021E00012D0082B0BD8012202FA03F313F4AA7FB2
:1021F00007D094F89920216B2B4816F03FFFEA6A2C
:1022000005E013F0A80FFAD0EA6A42F40042BAF1EE
:10221000100F8EBF0021254B53F82A1094F89930E7
:102220001B0603F0F85313430B43EB622379222B75
:1022300025D0D4F8F020D4F8F8300192C3B10422AC
:102240001B480DEB020116F019FFEB6A43F4807393
:10225000EB624FF08072D4F88810D4F8F4306966DD
:102260002A6413B1D4F88030AB6602B0BDE8F087C1
:10227000324604F19B010E4816F000FFE9E73246B2
:10228000A1680B4816F0FAFEE3E7E668A6F1100A2B
:102290007FE794F89A20E16A064816F0EFFE9CE783
:1022A000103400201035002094340020601102000A
:1022B00054340020443400202DE9F047044682B015
:1022C000E76D8946904600214FF48072544816F01D
:1022D00013FF4FF480720021524816F00DFF7B1E51
:1022E00094F804C00E2B98BF1027BCF1220F00F009
:1022F0008D80BCF1280F19BF6FF00F0A0026A66869
:10230000A6F1100A4FF08073454D4FEA09322B6059
:10231000636A42EA4822EB60A36A42F48040AB6100
:10232000236A40F050006B62E36E6F612F62AB6016
:10233000E862B9F1000F02D0D4F8E4302B63B8F1B1
:10234000000F02D0D4F8E4306B6394F87C30012B9A
:1023500048D0082B0ED8012101FA03F313F4AA7F09
:102360003DD094F88020216B2F4816F087FEE86A54
:1023700094F804C0BAF1100F8CBF00212B4B94F8D5
:10238000802098BF53F82A1094F8813012061B055C
:1023900003F4700302F0F852134303430B43BCF100
:1023A000220FEB6236D0D4E93A230192FBB104222A
:1023B0001F480DEB020116F061FEEB6A43F48073D7
:1023C000EB6294F88120E2B9A26ED4F8E4306A6638
:1023D00013B1D4F8D430AB6602B0BDE8F08713F087
:1023E000A80FC7D042F4404040F05000C2E7324648
:1023F0000F4804F1820116F041FE94F88120002A72
:10240000E2D0E16A0B4816F039FEDDE7E668A6F196
:10241000100A77E73246A168054816F02FFED0E78C
:102420001034002010350020943400206011020088
:1024300054340020843400202DE9F043036A90F8DE
:1024400004C0DF68BCF1220F07F1030683B026F059
:102450000306D3E901893FD0BCF1280F31D090F8B1
:10246000285005F0FB03022B4BD06FF00F02002326
:10247000043D18BF0125ED034FF0807E254C102A46
:10248000A760C4F800E005D8DFF890E05EF82220ED
:1024900045EA0245BCF1220FE56221D0426C01926F
:1024A000826C1ABB1A461C4816F0E8FD0023C4E9EA
:1024B0000579C4F80C8026622361E36103B0BDE8AE
:1024C000F0838368A3F1100290F8285005F0FB0414
:1024D000022CCDD10025CFE7C368A3F11002F3E7AA
:1024E0000A460C4811211CF06BFDDFE704220A4864
:1024F0000DEB020116F0C2FDE36A43F48073E36260
:10250000D4E700234FF08072024CA7602260E362A0
:10251000C4E700BF1034002054340020A81102008A
:102520002DE9F041866B044600790F3626F00F0640
:102530002228B04682B047D028283AD094F8485094
:1025400005F0EF03022B54D06FF00F020023222D71
:1025500048F2200708BF20274FF0807C294D102A21
:10256000AE60C5F800C005D8DFF8A0C05CF8222036
:1025700047EA02472228EF622AD0226D0192626D5B
:1025800062BB1A46204816F079FD04F120021023A0
:102590000D211C481CF014FDD4E90C32EB60002323
:1025A0006E61AA61C5F820802B61EB6102B0BDE8C5
:1025B000F081A368A3F1100294F8485005F0EF07EA
:1025C000022FC4D12027C7E7E368A3F11002F3E785
:1025D0000A460C4811211CF0F3FCD6E704220A48F5
:1025E0000DEB020116F04AFDEB6A43F48073EB62D7
:1025F000CBE74FF08073034D2B602023AE60EB627E
:102600000023BAE71034002054340020A81102003F
:10261000F0B5476C90F804C0FE1CBCF1220F0446D4
:1026200083B026F0030646D0BCF1280F38D090F8CE
:10263000400000F0FB03022B52D06FF00F0E00237E
:10264000042848F2100008BF10204FF08072294D76
:10265000BEF1100FAF602A6004D8274A52F82E202E
:1026600040EA0240BCF1220FE86228D0E26C0192FD
:10267000226D52BB1A46214816F000FD04F12002DB
:1026800010230D211B481CF09BFCD4E90C32EB609D
:1026900000236F61AA612E622B61EB6103B0F0BD74
:1026A0008368A3F1100E94F8400000F0FB02022AA8
:1026B000C6D11020C9E7C368A3F1100EF3E70A469C
:1026C0000C4811211CF07CFCD8E704220B480DEBD0
:1026D000020116F0D3FCEB6A43F48073EB62CDE7A2
:1026E0004FF08073034D2B601023AF60EB6200232B
:1026F000BCE700BF10340020A811020054340020B1
:10270000F8B505460C46164600214FF48072234862
:102710002F6D16F0F1FC4FF480720021204816F066
:10272000EBFC95F84930022B2B6D1ED00F2B25D9D1
:1027300008224FF0000C4FF09851184B84F0010420
:1027400086F00106240144EA46141960E96C14433A
:10275000082AD9609C61D5E915019F60C3E907018A
:102760005F6108BFC3F828C0F8BD0F2B4FF0090206
:1027700010D8C7F1100C4FB11027DCE78021EA6CAC
:10278000C7F1100CD1540822002FF5D167464FF045
:102790000F0CD0E74FF0000CCDE700BF1034002045
:1027A0001035002010B400224FF08064044B89B231
:1027B0001C60C3E903025DF8044B9960704700BFD9
:1027C0001034002000234FF4C07270B5046890B03C
:1027D000054601462068CDE90232CDE90433CDE952
:1027E0000633FFF763F9002857D02379222B39D01D
:1027F000282B55D194F8403003F0FD02012A15D062
:10280000052BE06802A914BF4FF400764FF48076E0
:10281000FEF7E6FD90B188300CBF6FF004046FF056
:102820000504FFF769F9204610B070BDE06802A901
:102830004FF48076FEF7D4FD0028ECD120221B4B0C
:10284000019600930DEB020104F14C03201DFEF7ED
:10285000D7FC0028DFD102A80DF0EEFA000A08A983
:10286000206500E0A1682046FFF7D2FE20680DF049
:1028700099FA80B12A460E49207EFFF74BF930B90C
:10288000FFF78AF918B96469204610B070BD0DF0E1
:1028900095FA0024C5E7FFF72FF96FF00104C2E7AE
:1028A000FFF72AF96FF00604BDE700BF00404004BF
:1028B000B528010070B506460468FFF7D5F910F099
:1028C000FF051CD04FF0FF350DF078FA6561FFF77A
:1028D00013F994F8403023F00402013A012A9CBF16
:1028E000002284F85420227E012A00D070BDD4E951
:1028F0000E523046AC466169BDE87040604704F155
:102900002000FFF7D9F9DFE72DE9F04104681E4602
:1029100023790546022B0F4690468AB027D0082B14
:1029200040F09F8094F8403003F0FD02012A1BD054
:10293000052B14BF4FF400734FF4807301934A4B7F
:102940002022009302A904F14C03201DFEF758FC3D
:1029500000285DD0883014BF6FF005066FF00406C4
:1029600030460AB0BDE8F0814FF48073E6E7102EE0
:1029700004F1040071D03D490DF0F4FC3C4804F131
:10298000200114F0FDFD237E042B01D00F2E5DD815
:10299000334620464246394603F0E6FC2C6894F85C
:1029A0004030012B24D0227EE16B042A896801D0BB
:1029B0000F2924D8052B35D02E4B1A6F22625A6F5F
:1029C00062629A6FA262DB6FE362204666690DF075
:1029D0004DFD237E012BC3D128463146A56B94F8CB
:1029E0004030E26BA847002630460AB0BDE8F081CF
:1029F000227E042A16D0E36B1B690F2B12D9022A00
:102A0000F1D14FF0FF311C480DF028F96669A7E7B6
:102A10001A4802A914F0B4FD102E164B0CD0134A1C
:102A2000DA62ABE710230022194604F1200006F019
:102A3000A9FD0023E376C8E7114ADA620C4804F1E5
:102A4000200114F09DFD237E042BA1D06B68294644
:102A50001A780C480DF04AFD9AE709490DF082FCFE
:102A6000ECE76FF006067BE7004040043A00000107
:102A700070000C4000000C404063002050000C40EF
:102A800038000001892A01002DE9F0411E4E04683A
:102A9000D6F80C71054620460DF048FD3B0701D4E1
:102AA000BDE8F0812022194BC3F8042594F840308A
:102AB00003F0FB03012B17D0336F2362736F636244
:102AC000B36FA362F36FE36220460DF0CFFC237E69
:102AD000022B13D02846A56B6169AC4694F84030B0
:102AE000E26BBDE8F041604710230022194604F173
:102AF000200006F047FD0023E376E5E70448BDE843
:102B0000F0410DF0B5B800BF00000C4000400C4093
:102B10004063002008B5FEF729FDBDE808400DF030
:102B2000D7BB00BF70B5056806460C46FEF7AEFD84
:102B300000230D4A85F854309C4208BF1446C31A3E
:102B400018BF0123012162685B42AA63A268AB64DB
:102B500085F84110284621780DF0C4FB00280CBFF1
:102B60003046002070BD00BF2C13020000680DF03D
:102B7000DFBB00BF006810B5446934B9102A07D123
:102B8000203016F07BFA204610BD4469204610BD67
:102B90004FF0FF34F7E700BF2DE9F0410B680C461A
:102BA0001A780646022A2AD0082A28D0222A01D0DA
:102BB000282A5ED13568AA6C002A5AD12769002FCD
:102BC00057D095F85420002A53D16A61012205F1AB
:102BD000040C85F840200FCBEC638CE80F00D4E99F
:102BE0000123C5E90C2305F12000E16810226F6480
:102BF00016F044FA3046BDE8F041FFF7E3BDD4E9F2
:102C000001018B0753EA80733568226936D182B39C
